:0200000280007C
:1000000000400820A1390800ED250800ED25080072
:10001000ED250800ED250800ED2508000000000092
:10002000000000000000000000000000ED250800B6
:10003000ED25080000000000ED250800ED25080072
:10004000ED250800ED250800ED250800ED25080048
:10005000ED250800ED250800ED250800ED25080038
:10006000ED250800ED250800E52D0800FD2D080010
:10007000ED250800192208003D2208006122080031
:10008000ED250800ED250800ED250800ED25080008
:10009000ED250800ED250800ED250800ED250800F8
:1000A000ED250800ED250800ED250800ED250800E8
:1000B000ED250800755D0800ED25080010B5054C1C
:1000C000237833B9044B13B10448AFF30080012304
:1000D000237010BDB00E0020000000002CEF0800BF
:1000E00008B5034B1BB103490348AFF3008008BDBB
:1000F00000000000B40E00202CEF080080B582B094
:1001000000AF78607B68072B2ED801A252F823F04D
:1001100067010800310108003901080041010800A9
:100120004901080051010800590108006101080057
:1001300000200F4B984717E001200D4B984713E024
:1001400000200C4B98470FE010200A4B98470BE01B
:100150002020084B984707E03E20074B984703E0D4
:10016000064B984700E000BF00BF0837BD4680BD82
:10017000152F0800812F0800F52F080045300800D2
:1001800080B582B000AF78607B68072B2FD801A2C2
:1001900052F823F0B5010800B9010800B9010800C0
:1001A000CB010800CB010800CB010800DD010800ED
:1001B000DD01080001231BE00F4B98470346002B8D
:1001C00014BF01230023DBB212E00C4B9847034617
:1001D000002B14BF01230023DBB209E0084B984732
:1001E0000346002B14BF01230023DBB200E00023F1
:1001F00018460837BD4680BD4D2F0800DD2F08008A
:100200009130080080B483B000AF78607B68072B22
:1002100023D801A252F823F0390208003F02080057
:1002200043020800470208004B0208004F02080082
:1002300053020800570208004FF4FA430EE000236F
:100240000CE000230AE0084B08E0084B06E0084BEE
:1002500004E0074B02E0064B00E0002318460C3791
:10026000BD4680BC704700BF00093D0000127A0007
:10027000001BB70080B582B000AF0346FB7100BF22
:10028000FB791846064B9847034683F00103DBB21F
:10029000002BF5D100BF00BF0837BD4680BD00BFB1
:1002A0008101080080B586B000AFF8607A603B60DD
:1002B0000B46FB727B68002B07D13B68002B04D1F7
:1002C000FB684FF470021A601AE0FB7A18460E4B76
:1002D000984702467B68B2FBF3F37B617B693A681F
:1002E00002FB03F37B613B68013B1A04074B13409D
:1002F0007A68D2B2134343F47C52FB681A6000BFA1
:1003000000BF1837BD4680BD050208000000FF078A
:1003100080B582B000AF786039603B68002B08D1AF
:10032000094B98477B681B68084A43F00053936267
:1003300005E07B681B68054A43F48033D36100BF46
:100340000837BD4680BD00BF0131080000040E40E3
:1003500080B582B000AF78607B68002B03D1054B7D
:100360009847034602E0044B98470346184608376F
:10037000BD4680BD193108004D31080080B582B0FE
:1003800000AF0346FB71FB79033B042B08D8FB79D4
:100390001846064B9847FB791846054B984700E0EE
:1003A00000BF00BF0837BD4680BD00BFFD0008008C
:1003B0007502080090B585B000AF78607868214B71
:1003C00098470346002B39D17B68002B03D07B680C
:1003D000012B15D024E006201B4B98474FF080706E
:1003E0001A4B984700BF1A4B98470346002BFAD088
:1003F00007F10C00102301220621164CA0470FE044
:10040000154B98470346002B02D106200E4B984708
:1004100007F10C000023002206210E4CA04700BF6C
:1004200007F10C03796818460C4B984700BF7868B1
:10043000044B98470346002BF9D000E000BF143767
:10044000BD4690BD510308007D030800C13008007F
:10045000A9300800A502080079300800110308003F
:1004600080B483B000AF78607B6801221A6000BF5F
:100470000C37BD4680BC704780B483B000AF786055
:100480007B685B6843F001027B685A6000BF0C37F1
:10049000BD4680BC7047000080B582B000AF034607
:1004A000FB7172B600BFBFF35F8F00BF054B002228
:1004B0001A70FB791846044B984700BF0837BD46B1
:1004C00080BD00BF84020020FD32080080B483B0EC
:1004D00000AF0023FB7106E0FB79084A0021D154EC
:1004E000FB790133FB71FB79042BF5D9034B012216
:1004F0005A7100BF0C37BD4680BC704714240020E1
:1005000080B483B000AF0023FB71094B3B6005E072
:100510003B6801333B60FB790133FB713B681B781F
:10052000002BF5D0FB7918460C37BD4680BC7047D0
:100530001424002080B582B000AF0B4B98470346CF
:10054000FB71FB79002B08D1084B01221A70BFF315
:100550005F8F00BF62B600BF03E0FB791846044B13
:1005600098470837BD4680BD010508008402002079
:100570009904080080B483B000AF786039607B686C
:1005800000221A6000BF0C37BD4680BC70470000D7
:1005900080B483B000AF78600B46FB707B681B684B
:1005A00023F007027B681A60FB780A2B39D801A276
:1005B00052F823F0E1050800E1050800E105080014
:1005C000EB050800EB050800EB050800EB0508004B
:1005D000EB050800F90508000706080015060800E5
:1005E0007B681A687B681A601BE07B681B6843F0B5
:1005F00001027B681A6014E07B681B6843F002020A
:100600007B681A600DE07B681B6843F003027B681F
:100610001A6006E07B681B6843F004027B681A607E
:1006200000BF00BF0C37BD4680BC704780B483B0AC
:1006300000AF786039607B681B6823F070027B68CC
:100640001A607B681A683B681A437B681A6000BFAF
:100650000C37BD4680BC704780B582B000AF786073
:10066000396007497B681A683B68103341F82320DA
:100670003868044B984700BF0837BD4680BD00BFAF
:1006800000040E40FD31080080B582B000AF034683
:10069000FB71FB790A2B00F2A28001A252F823F031
:1006A000CD060800EF0608000F0708002F07080016
:1006B0004F0708006F0708008F070800AF07080002
:1006C000CF070800D7070800DF07080000204E4BBF
:1006D0009847034683F00103DBB2002B00F08180D2
:1006E00000204A4B98470020494B984779E0012069
:1006F000454B9847034683F00103DBB2002B72D0D1
:100700000120424B98470120414B98476BE0022063
:100710003D4B9847034683F00103DBB2002B64D0C6
:1007200002203A4B98470220394B98475DE003205E
:10073000354B9847034683F00103DBB2002B56D0BC
:100740000320324B98470320314B98474FE0042059
:100750002D4B9847034683F00103DBB2002B48D0B2
:1007600004202A4B98470420294B984741E0052054
:10077000254B9847034683F00103DBB2002B3AD0A8
:100780000520224B98470520214B984733E006204F
:100790001D4B9847034683F00103DBB2002B2CD09E
:1007A00006201A4B98470620194B984725E007204A
:1007B000154B9847034683F00103DBB2002B1ED094
:1007C0000720124B98470720114B984717E000204D
:1007D000104B984714E001200E4B984710E000BFE3
:1007E0000EE000BF0CE000BF0AE000BF08E000BF61
:1007F00006E000BF04E000BF02E000BF00E000BF71
:1008000000BF0837BD4680BD81010800FD0008001B
:1008100075020800B503080080B500AF3F4B98474C
:100820003F4B984709203F4B98473F4929203F4B72
:1008300098473D492A203D4B98473B492B203B4B4D
:10084000984739492C20394B984737492D20374B49
:10085000984735492E20354B984733492F20334B45
:10086000984731493020314B98472F4933202F4B3F
:1008700098472D4937202D4B98472B4934202B4B37
:1008800098474FF0405240F2BF112948294B9847F2
:1008900040F2BF112648284B984728492720234B70
:1008A000984726492820214B9847244920201F4B50
:1008B0009847224921201D4B9847204922201B4B55
:1008C00098471E492320194B98471C492420174B51
:1008D00098471A492520154B98474FF0405126203C
:1008E000124B98474FF060513120104B984700222F
:1008F00000211348134B9847002200211048124B47
:1009000098474FF0011200210D48104B98470322E1
:1009100000210B480E4B984700BF80BDE926080018
:10092000F11908006531080001000008012B0800DA
:10093000000E0E40312C08000D2A080001000010A6
:1009400000000E40553708007F370800A93708001F
:10095000D337080080B586B000AFF8600B467A60E8
:10096000FB7207F11403F96818460E4B9847FB7A9F
:1009700018460D4B9847FA7A07F1140311461846AA
:100980000A4B984707F1140379681846084B9847B3
:1009900007F11403F9681846064B984700BF18374B
:1009A000BD4680BD75050800890608009105080050
:1009B0002D0608005906080080B584B000AF4FF03E
:1009C00000610D202D4B98474FF000610E202B4BFE
:1009D00098474FF000610F20284B98474FF0405147
:1009E0000320264B98470320254B98474FF0405152
:1009F0000420224B98470420214B98470023BB60DA
:100A000002E0BB680133BB60BB68B3F5FA7FF8D383
:100A100004201C4B984700237B6002E07B68013375
:100A20007B607B68B3F5FA7FF8D31748174B98477C
:100A300017491848184B98470346FB81FB89DBB2DE
:100A40001A4600211048154B98470F48144B9847F9
:100A5000002200210C48134B9847082200210A4825
:100A6000114B9847012200210748104B9847064830
:100A70000F4B984700BF1037BD4680BD012B0800C3
:100A8000A12A0800D12A0800008000401938080077
:100A900000D8B80500A60E0019390800533908001F
:100AA0007904080035380800D13808008338080078
:100AB0006104080080B586B000AF3B1D10211846C8
:100AC0002A4B98472A4B01221A70BFF35F8F00BF51
:100AD00062B600BF274B9847274B9847274B98474C
:100AE00000237B6111E07B69DB00254A98187B6954
:100AF0009B0007F11802134453F8143C1A4621498D
:100B0000214B98477B6901337B617B69032BEAD9D1
:100B10001B4B002283F8202000220A2101201B4BBE
:100B200098471B4B98471B4B98471B4B98471B48B4
:100B30001B4B98471B4B98471B4B1B78DBB2002B7A
:100B4000F8D01A4B1B78DBB2002BF3D007E0134828
:100B5000174B9847034619460020164B98470F48F5
:100B6000154B98470346002BF1D1E3E7F525080024
:100B700084020020CD040800893E080019080800FE
:100B80005C02002038EA0800858208005509080048
:100B9000B9090800154308003D78080054210020D9
:100BA000D5230800350508001C130020641500201B
:100BB0005B240800A1590800A524080080B483B074
:100BC00000AF0346FB71FB7903F01F03012202FA19
:100BD00003F1054A97F907305B0942F8231000BF7B
:100BE0000C37BD4680BC704700E100E080B483B0A4
:100BF00000AF0346FB71FB7903F01F03012202FAE9
:100C000003F1064A97F907305B09603342F8231075
:100C100000BF0C37BD4680BC704700BF00E100E05C
:100C200080B483B000AF03463960FB7197F9073099
:100C3000002B0BDA3B68DAB20C49FB7903F00F03A7
:100C4000043B1201D2B20B441A7609E03B68DAB2D7
:100C5000074997F907301201D2B20B4483F80023F9
:100C600000BF0C37BD4680BC704700BF00ED00E000
:100C700000E100E080B582B000AF78607B68072BB0
:100C80002ED801A252F823F0DF0C0800A90C0800AE
:100C9000B10C0800B90C0800C10C0800C90C080010
:100CA000D10C0800D90C080000200F4B984717E022
:100CB00001200D4B984713E000200C4B98470FE0A4
:100CC00010200A4B98470BE02020084B984707E07C
:100CD0003E20074B984703E0064B984700E000BFD3
:100CE00000BF0837BD4680BD152F0800812F0800C2
:100CF000F52F08004530080080B582B000AF78605D
:100D00007B68072B2FD801A252F823F02D0D080085
:100D1000310D0800310D0800430D0800430D080097
:100D2000430D0800550D0800550D080001231BE078
:100D30000F4B98470346002B14BF01230023DBB25F
:100D400012E00C4B98470346002B14BF01230023ED
:100D5000DBB209E0084B98470346002B14BF012380
:100D60000023DBB200E0002318460837BD4680BDF3
:100D70004D2F0800DD2F08009130080080B483B0AB
:100D800000AF78607B68072B23D801A252F823F0CC
:100D9000B10D0800B70D0800BB0D0800BF0D08001D
:100DA000C30D0800C70D0800CB0D0800CF0D0800CB
:100DB0004FF4FA430EE000230CE000230AE0084B56
:100DC00008E0084B06E0084B04E0074B02E0064B46
:100DD00000E0002318460C37BD4680BC704700BFBA
:100DE00000093D0000127A00001BB70080B582B0F8
:100DF00000AF0346FB7100BFFB791846064B9847CE
:100E0000034683F00103DBB2002BF5D100BF00BF26
:100E10000837BD4680BD00BFF90C080080B500AFA3
:100E20000620034B984703461B01184680BD00BFB0
:100E30007D0D080080B500AF024B984703465B0864
:100E4000184680BD1D0E080080B582B000AF7860E6
:100E50007868034B984700BF0837BD4680BD00BF88
:100E60006531080080B500AF014B984700BF80BDD9
:100E70008D60080080B500AF034B00221A70034B51
:100E8000984700BF80BD00BFCC0E002055780800F9
:100E900080B500AF014B984700BF80BD6D7808005A
:100EA00080B500AF084B1B78DBB283F00103DBB2E7
:100EB000002B06D1054B984703461846044B98472C
:100EC00000E000BF80BD00BF7D020020556108002A
:100ED0008178080080B500AF074B01221A70074BDC
:100EE00001221A70064A4FF480610648064B984763
:100EF0000123184680BD00BFCC0E00207D020020DB
:100F000079150800D00E00206D5B080080B400AF9A
:100F1000034B00221A7000BFBD4680BC704700BF63
:100F20007D02002080B582B000AF0F4B1B687B6054
:100F30000D4B5B683B600D4B984700BF02200C4B8C
:100F400098470346002BF9D038680A4B98470A4A5D
:100F500079684FF0C040094B9847044B984700BF51
:100F60000837BD4680BD00BFD0120020C118080060
:100F700081180800F118080041150800415B0800BD
:100F800080B582B000AF0F4B1B687B600D4B5B6878
:100F90003B600D4B984700BF05200C4B984703461C
:100FA000002BF9D038680A4B98470A4B4FF0C042E3
:100FB0001A60094A7B681360034B984700BF0837E3
:100FC000BD4680BDD0120020C1180800811808005D
:100FD000F1180800141300201813002080B584B005
:100FE00000AF164B1B68BB60144B5B687B60144BF7
:100FF0003B60144B984700BF0120134B98470346B2
:10100000002BF9D07868114B98470023FB600BE068
:101010003A68FB681A440E4B1968FB680B44127857
:101020001A70FB680133FB60FA68BB689A42EFD321
:10103000044B984700BF1037BD4680BDD01200203A
:10104000D8120020C118080081180800F118080003
:101050008002002080B582B000AF0A4B5B687B60E5
:10106000094B984700BF0420084B98470346002BC4
:10107000F9D07868064B9847034B984700BF08376C
:10108000BD4680BDD0120020C1180800811808009C
:10109000F118080080B500AF194B5B88DBB2032B59
:1010A00014D0032B29DC012B02D0022B0AD024E020
:1010B0000620144B98470620134B98471020134BDB
:1010C00098471BE01020124B984717E001220C2193
:1010D0001048114B9847114B984700BF104B5B6865
:1010E00003F40033002BF9D10D4B1B680C4A43F07D
:1010F000254343F005031360FEE700BF00BF80BD3A
:101100001C240020750C0800ED0D0800152E0800A9
:10111000952E080000080E408D250800650E080079
:1011200000120E4080B500AF0D4B5B88A22B0FD094
:10113000A22B11DCA02B02D0A12B03D00CE0094B79
:1011400098470AE0084B9847084B0A221A7004E0B7
:10115000064B00221A7000E000BF00BF80BD00BF38
:101160001C240020111A0800911A080010130020F6
:1011700080B500AF2620034B98472620024B9847A6
:1011800000BF80BDA12A0800D12A080080B500AFA9
:1011900000210248024B984700BF80BD0000094073
:1011A000591C080080B582B000AF104BDA880F4B95
:1011B0009B899A4216D800237B600CE00B4B9A68FF
:1011C0007B6813441B781A4600210948094B98474D
:1011D0007B6801337B60054BDB881A467B68934252
:1011E000ECDB00E000BF0837BD4680BD1C240020BA
:1011F000000009405920080080B500AF094BDB888A
:10120000022B0CD8074B9B681B781A46054B9B6832
:1012100001331B7819461046034B984700E000BF86
:1012200080BD00BF1C240020DD22080080B500AF77
:101230004C4B4D4A9A604B4BDB88402B28BF4023D8
:101240009AB2484B9A81494B00221A70454B5B7801
:10125000103B162B7AD801A252F823F0B9120800DD
:10126000E5120800CF120800FB1208004D13080019
:101270004D130800251308004D1308004D130800F6
:101280004D1308001B130800111308004D1308002C
:101290004D1308004D1308004D1308004D130800AE
:1012A0004D1308002F1308004D1308004D130800BC
:1012B000391308004313080006202D4B98470346B6
:1012C000002B45D0274B2B4A1A61012348E006200A
:1012D000274B98470346002B3CD0224B264A1A61E5
:1012E00001233DE00620224B98470346002B33D0D4
:1012F0001C4B224A1A61012332E006201C4B9847FE
:101300000346002B2AD0174B1D4A1A61012327E000
:10131000144B1C4A1A61012322E0124B1A4A1A612B
:1013200001231DE00F4B194A1A61012318E00D4BF0
:10133000174A1A61012313E00A4B164A1A61012366
:101340000EE0084B144A1A61012309E0002307E06C
:1013500000BF04E000BF02E000BF00E000BF0023C8
:10136000184680BD1C240020D0120020101300203D
:1013700081180800250F0800810F0800551008008B
:10138000DD0F08008D110800A511080025110800C7
:101390009510080071110800F911080080B582B09D
:1013A00000AF5C4B5B78123B142B00F2AD8001A2C6
:1013B00052F823F00914080009150800091508005F
:1013C000AB14080009150800891408000915080065
:1013D000091508004B140800351408000915080009
:1013E0000915080009150800091508000915080065
:1013F0000915080009150800091508000915080055
:1014000009150800E5140800434B1B68414A936026
:10141000424B1B689AB23F4B9A81404B00221A60A4
:101420003F4B98470346052B02D100203D4B984780
:1014300001236AE001213C483C4B98470346002BBE
:1014400014BF01230023DBB25FE000237B600CE0CC
:101450003548374B98470346D9B2364A7B68134420
:101460000A461A707B6801337B602A4BDB881A4678
:101470007B689342ECD3274B2E4A9A607B689AB2E2
:10148000244B9A81012340E02A4B01221A70294BF8
:1014900001225A70274B00229A701E4B254A9A60EF
:1014A0001C4B03229A8101232FE00720224B9847EF
:1014B0000346002B14BF01230023DBB21A461D4B49
:1014C0001A701C4B00225A701A4B00229A70194B4A
:1014D0000022DA700F4B174A9A600E4B04229A8151
:1014E000012312E00B4B5B88DBB21846134B984785
:1014F0000346DAB20F4B1A70064B0E4A9A60054B40
:1015000001229A81012300E0002318460837BD46D6
:1015100080BD00BF1C2400201413002018130020DD
:10152000D91808008118080000000940591C08005B
:101530001521080020150020712A08004D230800FD
:1015400080B582B000AF03463960FB711346BB71B2
:10155000FB79002B08D1064B98470346022B04D198
:101560000020044B984700E000BF0837BD4680BD0F
:10157000D91808008118080080B584B000AF034670
:101580003960FB711346BB71FB79002B06D0224AF0
:101590004FF480612148224B984739E0214B1B785A
:1015A000002B1AD10023FB600BE01F4B1A68FB686D
:1015B00013441A49FA680A4412781A70FB68013316
:1015C000FB60FA683B689A42EFD3184B9847034692
:1015D000042B17D1164B984714E0124B1B780A2B9B
:1015E00010D10023BB6009E00C4ABB6813441B7890
:1015F0001846104B9847BB680133BB60BA683B681C
:101600009A42F1D3044A4FF480610448044B98474E
:101610001037BD4680BD00BF79150800D00E0020F0
:101620006D5B08001013002080020020D91808000C
:10163000C1180800A51A080080B483B000AF0346A3
:10164000FB71FB79044A0121D154012318460C3760
:10165000BD4680BC704700BF1C13002080B483B01F
:1016600000AF0346FB71FB79034A0021D15400BF50
:101670000C37BD4680BC70471C13002080B584B079
:1016800000AF0346FB71FB791D4AD35CDBB2002B34
:1016900031D01C4B1B78DBB2002B2CD0FB791846C9
:1016A000194B9847F86023E0FB68B3F5007F28BF2B
:1016B0004FF40073FB60FB79FA6814491846144B29
:1016C000984700237B810AE07B89104AD35C1A4645
:1016D00000211048104B98477B8901337B817B891F
:1016E000FA689A42F0D8FB791846074B9847F86099
:1016F000FB68002BD8D100BF1037BD4680BD00BFAE
:101700001C13002064150020295708002013002016
:10171000B9570800000009405920080080B588B07A
:1017200000AF03463960FB71FB79444AD35CDBB2FE
:10173000002B00F08080424B1B78DBB2002B7AD06C
:10174000FB79002B70D13B689B79042B6ED93B68E9
:101750001B79022B6CD83B681B68BB600023BB6104
:101760003B681B791B037B613B689B79053B9B01B5
:10177000FB603B685B79042B5CD801A252F823F034
:10178000951708009D170800A5170800AB1708005B
:10179000B31708004FF400633B610EE04FF4007391
:1017A0003B610AE000233B6107E04FF4C0633B610B
:1017B00003E04FF480633B6100BFFB79002B3AD11B
:1017C0000D20204B98472048204B984720481F4B1E
:1017D000984720481D4B98471F4B9847024607F1F2
:1017E000080319461D481E4B98471C481D4B984737
:1017F0001A481D4B9847012118481C4B98474FF039
:10180000006113201A4B98474FF000611220184BCB
:1018100098470D20174B984705210D20164B9847E8
:101820000D20164B984706E000BF04E000BF02E021
:1018300000BF00E000BF2037BD4680BD1C13002064
:1018400064150020490E080054210020D52308000B
:1018500084230020B01F0020350E0800000009403E
:101860001D7A0800E17B0800B17B0800297C080094
:10187000012B0800ED0B0800210C0800BD0B08002F
:1018800080B584B000AF0346FB710023FB60094BB9
:101890009847094B1B78DBB2002B04D10123FB6076
:1018A000054AFB791370054B9847FB6818461037BB
:1018B000BD4680BD0D270800601500206527080083
:1018C00080B400AF034B00221A7000BFBD4680BC3D
:1018D000704700BF6015002080B400AF034B1B7839
:1018E000DBB21846BD4680BC704700BF60150020C3
:1018F00080B582B000AF78600C4B9B6B03F0400268
:101900007B6803F03F031A437B685B0003F4C073FA
:10191000064913438B633120054B98473120054B13
:10192000984700BF0837BD4680BD00BF000E0E407F
:10193000D12A0800A12A080080B483B000AF7860E3
:101940007B68072B23D801A252F823F06D190800F9
:1019500073190800771908007B1908007F1908001F
:1019600083190800871908008B1908004FF4FA43FF
:101970000EE000230CE000230AE0084B08E0084BCF
:1019800006E0084B04E0074B02E0064B00E00023B2
:1019900018460C37BD4680BC704700BF00093D00AB
:1019A00000127A00001BB70080B500AF0620034B81
:1019B000984703461B01184680BD00BF391908002F
:1019C00080B500AF024B984703465B08184680BDC0
:1019D000A919080080B582B000AF78607868034B21
:1019E000984700BF0837BD4680BD00BF653108007D
:1019F00080B500AF4FF060511920034B9847192074
:101A0000024B984700BF80BD012B0800A12A0800A7
:101A100080B584B000AF1920144B9847144B3B603D
:101A2000C0237B600023FB600023BB600D20114BB3
:101A30009847114B984702463B4619460F48104BB2
:101A400098474FF0006112200E4B98474FF000610D
:101A500011200C4B98470C4B4FF4C0225A6007489A
:101A60000A4B984700BF1037BD4680BDD12A0800F9
:101A700080969800D5190800C11908000000094097
:101A8000A17A0800012B0800000C0E40B17B080071
:101A900080B500AF1920024B984700BF80BD00BF42
:101AA000A12A080080B582B000AF0346FB71FB7924
:101AB00019460348034B984700BF0837BD4680BD11
:101AC00000000940D77C080080B483B000AF034613
:101AD000FB71FB7903F01F03012202FA03F1054AAF
:101AE00097F907305B0942F8231000BF0C37BD4659
:101AF00080BC704700E100E080B483B000AF0346D3
:101B0000FB71FB7903F01F03012202FA03F1064A7D
:101B100097F907305B09603342F8231000BF0C3798
:101B2000BD4680BC704700BF00E100E080B483B0D8
:101B300000AF03463960FB7197F90730002B0BDAD1
:101B40003B68DAB20C49FB7903F00F03043B120146
:101B5000D2B20B441A7609E03B68DAB2074997F92A
:101B600007301201D2B20B4483F8002300BF0C37B8
:101B7000BD4680BC704700BF00ED00E000E100E022
:101B800080B483B000AF78607B68072B23D801A2B4
:101B900052F823F0B51B0800BB1B0800BF1B080050
:101BA000C31B0800C71B0800CB1B0800CF1B080085
:101BB000D31B08004FF4FA430EE000230CE000238F
:101BC0000AE0084B08E0084B06E0084B04E0074B2E
:101BD00002E0064B00E0002318460C37BD4680BCEF
:101BE000704700BF00093D0000127A00001BB700DB
:101BF00080B500AF0620034B984703461B011846EB
:101C000080BD00BF811B080080B500AF024B984724
:101C100003465B08184680BDF11B080080B582B002
:101C200000AF78607868034B984700BF0837BD461F
:101C300080BD00BF6531080080B500AF4FF0006186
:101C40001320044B98474FF000611220014B984736
:101C500000BF80BD012B080080B58AB000AF78605E
:101C60000B46FB70934B5B88DBB2103B082B00F2FA
:101C7000D68101A252F823F09D1C08000D1E080019
:101C80008F1E08001F200800251F08001F200800C5
:101C90001F2008001F200800991F0800FB78002B58
:101CA00006D0844BDB88042B40F0B0810123B7E1E0
:101CB000804BDB88072B40F0A5807E4B9B681B6820
:101CC0007B627B6AFB607B4B9B6804331B78022B37
:101CD0000DD0022B0FDC002B02D0012B03D00AE029
:101CE0000023BB6109E04FF48053BB6105E04FF472
:101CF0000053BB6101E00023BB616E4B9B68053361
:101D00001B78042B1FD801A252F823F0211D0800D4
:101D1000291D0800311D0800371D08003F1D08005F
:101D20004FF400637B6111E04FF400737B610DE0C1
:101D300000237B610AE04FF4C0637B6106E04FF44F
:101D400080637B6102E04FF400637B61594B9B68C9
:101D500006331B78072B0CD0072B0DDC052B02D08C
:101D6000062B03D008E000233B6107E040233B61E2
:101D700004E080233B6101E0C0233B610023FB6161
:101D80007B684D4A934212D10D204C4B98474C48EA
:101D90004C4B98474C484B4B98474C48494B9847BD
:101DA0004B4B01221A704B484B4B984720E07B6805
:101DB0004A4A93420CD10E20404B98474848414B29
:101DC000984748483F4B9847414B01225A700FE0D3
:101DD0007B68454A93420BD10F20384B98474348C4
:101DE000384B98474248374B9847394B01229A70F5
:101DF000404B9847024607F10C03194678683E4B62
:101E0000984703E13D48344B9847FFE0FB7883F067
:101E10000103DBB2002B00F0FB807868384B984759
:101E20007868384B984701217868374B98477B682A
:101E3000214A93420CD1354B98470D20344B98479B
:101E400005210D20334B98470D20334B9847DFE099
:101E50007B68224A93420AD10E202D4B98470521D8
:101E60000E202C4B98470E202B4B9847D0E07B68D8
:101E70001D4A934240F0CC800F20254B9847052106
:101E80000F20244B98470F20234B9847C0E0FB7846
:101E900083F00103DBB2002B00F0BC8078681F4B9D
:101EA000984778681D4B9847032178681C4B9847E2
:101EB000B0E000BF1C240020000009401D1C0800E9
:101EC00054210020D523080084230020B01F0020C7
:101ED0006415002040EA0800D18008000040094055
:101EE000C8200020F822002000800940241F002084
:101EF0006C220020091C08001D7A080054EA080022
:101F0000E17B0800B17B0800297C0800391C08002F
:101F1000F91A08002D1B0800C91A0800F97B0800EF
:101F2000437C0800FB78002B76D03F4BDB88042BEA
:101F300072D13D4B3D4A9A603B4B04229A817B68AB
:101F40003B4A934205D13B483B4B98470346BB6015
:101F500012E07B68394A934205D13948364B98479D
:101F60000346BB6008E07B68364A934204D136489A
:101F7000314B98470346BB6007F108031A782B4B97
:101F80001A707A7A294B5A70BA7A284B9A70FA7A70
:101F9000264BDA70012343E0FB78002B3ED0224B26
:101FA000DB88042B3AD1204B204A9A601E4B042236
:101FB0009A817B681E4A934205D124481E4B98475C
:101FC0000346BB6012E07B681C4A934205D120485F
:101FD000194B98470346BB6008E07B68194A934257
:101FE00004D11C48144B98470346BB6007F1080313
:101FF0001A780E4B1A707A7A0C4B5A70BA7A0B4BCD
:102000009A70FA7A094BDA70012309E000BF06E002
:1020100000BF04E000BF02E000BF00E000BF0023FB
:1020200018462837BD4680BD1C24002068150020B6
:1020300000000940B01F0020CD24080000400940E6
:10204000F8220020008009406C2200208423002018
:10205000C8200020241F002080B584B000AFF860A5
:10206000B9601346FB71BB68002B13D1FB681D4A96
:10207000934202D11C4BBB600CE0FB681B4A9342AD
:1020800002D11B4BBB6005E0FB681A4A934224D186
:10209000194BBB60FB7900221946B868174B98476B
:1020A000F868174B9847034603F00203002B15D13D
:1020B000F868144B9847034603F00203002B07D03F
:1020C000B868114B984703461946F8680F4B984774
:1020D0000221F8680E4B984700E000BF1037BD465C
:1020E00080BD00BF0000094084230020004009405B
:1020F000C820002000800940241F0020F72308008A
:102100005D7C0800737C08005B240800D77C080015
:10211000297C080080B584B000AF78600023FB60A4
:10212000FB68002B16D17B680E4A934202D10E4BFE
:10213000FB600FE07B680D4A934202D10C4BFB60C1
:1021400008E07B680B4A934202D10B4BFB6001E035
:10215000FF2303E0F868094B9847034618461037F9
:10216000BD4680BD00000940B01F0020004009406E
:10217000F8220020008009406C2200205B24080027
:1021800080B586B000AFF860B9607A60F8681B4B24
:10219000984778617B6903F00103002B12D0FB683C
:1021A0009B69C3F308033B613B69DBB2002219461C
:1021B000B868134B98473B69DBB2002219461148B7
:1021C0000F4B98477B6903F00203002B12D078680D
:1021D0000D4B98470346002B08D078680B4B984767
:1021E00003461946F8680A4B984703E00221F8684D
:1021F000084B984700BF1837BD4680BD737C080068
:10220000F723080054210020A52408005B240800BF
:10221000D77C0800437C080080B500AF034A04491E
:102220000448054B984700BF80BD00BF84230020B1
:10223000B01F0020000009408121080080B500AFD8
:10224000034A04490448054B984700BF80BD00BFBE
:10225000C8200020F8220020004009408121080009
:1022600080B500AF034A04490448054B984700BFB6
:1022700080BD00BF241F00206C2200200080094088
:102280008121080080B483B000AF78600B467B806A
:102290007A887B68DA6000BF0C37BD4680BC704727
:1022A00080B483B000AF78607B689B689BB21846AF
:1022B0000C37BD4680BC704780B483B000AF7860F7
:1022C0007B681B6903F40073002B01D0012300E03D
:1022D000002318460C37BD4680BC704780B582B0DD
:1022E00000AF03460A46FB711346BB710320124B35
:1022F0009847FB799BB219461048114B984700BF8D
:102300000E48104B98470346002BF9D0BB799BB27F
:1023100019460A480A4B984700BF0848094B984796
:102320000346002BF9D00320074B9847012318469A
:102330000837BD4680BD00BFD12A0800008000409C
:1023400085220800B9220800A12A080080B584B0BF
:1023500000AF0346FB7101210020174B9847032073
:10236000164B9847FB799BB219461548154B984771
:1023700000BF1348144B98470346002BF9D00021A7
:102380000F48104B984700BF0D480F4B9847034626
:10239000002BF9D00A480D4B98470346FB730320E6
:1023A0000B4B984700210020034B9847FB7B1846B6
:1023B0001037BD4680BD00BFDD220800D12A0800CD
:1023C0000080004085220800B9220800A1220800F0
:1023D000A12A080080B483B000AF786000237A6837
:1023E00053607A6813607B6800229A6000BF0C37E4
:1023F000BD4680BC704780B485B000AF78600B46A6
:10240000FB701346BB707B681B68FB60FB68013385
:10241000FB60FB687F2B0ED90023FB600BE0BB78D1
:1024200083F00103DBB2002B05D07B689B685A1C4C
:102430007B689A600DE07B685B68FA689A42EED030
:102440007B681B687A681344FA781A737B68FA68A9
:102450001A601437BD4680BC704780B485B000AFA9
:1024600078607B685B68FB607A68FB6813440C33B8
:102470001B78FB727B681B68FA689A4201D1FF23C4
:102480000BE0FB680133FB60FB687F2B01D9002365
:10249000FB607B68FA685A60FB7A18461437BD46C1
:1024A00080BC704780B485B000AF78607B681B68E3
:1024B000FB607B685B68FA689A4214BF01230023C3
:1024C000DBB218461437BD4680BC704780B485B077
:1024D00000AF78607B681B68FB607B685B68FA68AC
:1024E000D31AFB60FB68002B02DAFB688033FB60C9
:1024F000FB6818461437BD4680BC704780B483B073
:1025000000AFEFF310833B603B68002B0CBF01234F
:102510000023DBB27B6072B600BFBFF35F8F00BFEA
:10252000044B00221A707B6818460C37BD4680BCED
:10253000704700BF8402002080B483B000AF786091
:102540007B68002B14BF01230023DBB218460C3735
:10255000BD4680BC7047000080B582B000AF786097
:102560007868084B98470346002B07D0064B01229A
:102570001A70BFF35F8F00BF62B600BF00BF08379D
:10258000BD4680BD392508008402002080B586B094
:1025900000AFF860B9607A60BB680E2B02D0BB68F0
:1025A0000F2B02D14FF0FF3316E00D4B98477861A7
:1025B0007B681B0223F07F4323F0FF03BA68D2B28B
:1025C000134343F0B4431946F868064B9847386103
:1025D0007869054B98473B6918461837BD4680BD5A
:1025E000FD240800BD0000205925080080B400AF7C
:1025F000FEE7000090B58BB002AF7860396007F15C
:102600000C03042200920F220E211448144CA04700
:102610000346002B01D010231BE03B68042B01D99B
:1026200004233B600023FB610EE0FB699B007A689A
:102630001A44FB699B0007F120010B4453F8143C3A
:102640001360FB690133FB61FA693B689A42ECD382
:10265000002318462437BD4690BD00BF00080E4039
:102660000100002080B582B000AF78607868034B2D
:10267000984700BF0837BD4680BD00BF65310800E0
:1026800080B500AF0A20044B98470B20024B9847B7
:1026900000BF00BF80BD00BF6526080080B500AF49
:1026A0004FF060511D200D4B98474FF060511F2097
:1026B0000A4B98474FF040511D20084B98474FF068
:1026C00000624FF4C0510648064B98474FF08051C6
:1026D0003820024B984700BF80BD00BF012B080087
:1026E000000C0E40312C080080B500AF044B4FF4B5
:1026F00000425A60034B9847034B984700BF80BD88
:1027000050120E40812608009D26080080B483B038
:1027100000AF114B1B68002B14D1EFF310837B60CB
:102720007B68002B0BD172B600BFBFF35F8F00BF79
:102730000A4B00221A700A4B01221A7002E0084B61
:1027400000221A70044B1B680133034A136000BF58
:102750000C37BD4680BC70477815002084020020ED
:102760007C15002080B400AF0C4B1B68013B0B4A6A
:1027700013600A4B1B68002B0CD1094B1B78DBB292
:10278000002B07D0074B01221A70BFF35F8F00BFE9
:1027900062B600BF00BFBD4680BC70477815002000
:1027A0007C1500208402002080B584B000AF7860E2
:1027B0000023FB6017E0104AFB6852F833307A6858
:1027C0009A420DD10C4AFB68DB0013445B68012B75
:1027D00003D17868094B984702E07868084B98471E
:1027E000FB680133FB60FB68012BE4D900BF00BF2D
:1027F0001037BD4680BD00BF80EA0800D12A08001E
:10280000A12A080080B584B000AF78600023FB6087
:1028100017E0104AFB6852F833307A689A420DD1BB
:102820000C4AFB68DB0013445B68012B03D178681A
:10283000094B984702E07868084B9847FB680133DA
:10284000FB60FB68012BE4D900BF00BF1037BD4619
:1028500080BD00BF80EA0800A12A0800D12A080034
:1028600080B485B000AFF860B9607A607B68002BF7
:1028700003D0FB68BA685A6602E0FB68BA681A6659
:1028800000BF1437BD4680BC704780B487B000AF2E
:10289000F860B9607A60FB687A685A64BB68B3F123
:1028A000605F3CD0BB68B3F1605F34D8BB68B3F104
:1028B000405F34D0BB68B3F1405F2CD8BB68B3F144
:1028C000205F2CD0BB68B3F1205F24D8BB68B3F184
:1028D000805F17D0BB68B3F1805F1CD8BB68002B4A
:1028E0001DD0BB68B3F1006F15D1FB681B6F7B6116
:1028F000FB681A6F7B68D9437B690B401A40FB6801
:102900001A6708E0FB681B6F7B617A687B691A4372
:10291000FB681A6700BFFB687A685A6000E000BF76
:102920001C37BD4680BC704780B584B000AFF860EE
:10293000B9607A60B968F868194B98477B6803F00A
:1029400001031A46B968F868164B98477B6803F08C
:102950000A03002B03D0FB68BA681A6202E0FB6826
:10296000BA685A627B6803F00203002B04D0FB684C
:10297000BA68C3F8802008E07B6803F00803002BE6
:1029800003D0FB68BA68C3F88420FB68BA685A6150
:10299000FB68BA681A6000BF1037BD4680BD00BF33
:1029A000292A08006128080080B584B000AFF860CB
:1029B000B9607A603B60B968F868124B9847BA69A9
:1029C000B968F868104B98473B68002B03D0FB6848
:1029D000BA681A6502E0FB68BA685A657B68002B22
:1029E00003D0FB68BA681A6302E0FB68BA685A63EE
:1029F000FB68BA681A61FB68BA681A6000BF1037D2
:102A0000BD4680BD292A08006128080080B483B033
:102A100000AF786039607B683A68C3F8A02000BFD7
:102A20000C37BD4680BC704780B483B000AF78607F
:102A300039607B683A685A6400BF0C37BD4680BC79
:102A4000704780B483B000AF78607B68DB6C184659
:102A50000C37BD4680BC704780B483B000AF78604F
:102A60007B689B6C18460C37BD4680BC70470000E5
:102A700080B584B000AF78607868084B9847F860FC
:102A8000FB68DA6B7B6803F01F0322FA03F303F0A1
:102A9000010318461037BD4680BD00BF0D2D08004C
:102AA00080B584B000AF78607868084B9847F860CC
:102AB0007B6803F01F03012202FA03F31A46FB6846
:102AC0001A6300BF1037BD4680BD00BF0D2D080042
:102AD00080B584B000AF78607868084B9847F8609C
:102AE0007B6803F01F03012202FA03F31A46FB6816
:102AF0005A6300BF1037BD4680BD00BF0D2D0800D2
:102B000090B587B002AF786039607868434B9847DA
:102B1000F8603B6803F0F043B3F1605F57D0B3F166
:102B2000605F73D8B3F1405F51D0B3F1405F6DD8AF
:102B3000B3F1205F3FD0B3F1205F67D8B3F1006FEE
:102B400003D0B3F1805F1BD060E07B6803F01F030C
:102B5000012202FA03F31A464FF00061F868304B85
:102B600098477B6803F01F03012202FA03F319461A
:102B70003B6803F001031A46F8682A4B984747E080
:102B80007B6803F01F03012202FA03F31A464FF099
:102B90008051F868224B98477B6803F01F0301229D
:102BA00002FA03F319463B6803F001031A46F8687A
:102BB0001C4B98472CE07B6803F01F03012202FAAC
:102BC00003F33A681946F868174B984720E07B688A
:102BD00003F01F03012202FA03F319463B6803F0D6
:102BE0006053B3F1605F0CBF01230023DBB21846D2
:102BF0003B689B0803F001023B6803F0010300936C
:102C000013460246F868094CA04701E0002300E0A3
:102C1000012318461437BD4690BD00BF0D2D080096
:102C20008B2808006128080029290800A929080024
:102C300090B587B002AFF860B9607A607B6803F046
:102C4000F043B3F1605F39D0B3F1605F4FD8B3F1B7
:102C5000405F33D0B3F1405F49D8B3F1205F27D054
:102C6000B3F1205F43D8B3F1006F03D0B3F1805FBD
:102C70000FD03CE0BA684FF00061F8681F4B9847EE
:102C80007B6803F001031A46B968F8681C4B984743
:102C90002FE0BA684FF08051F868184B98477B686E
:102CA00003F001031A46B968F868154B984720E00D
:102CB0007A68B968F868134B98471AE07B6803F0A4
:102CC0006053B3F1605F0CBF01230023DBB21946F0
:102CD0007B689B0803F001027B6803F0010300930B
:102CE00013460A46B968F868074CA04701E000237C
:102CF00000E0012318461437BD4690BD8B2808001C
:102D00006128080029290800A929080080B485B095
:102D100000AF78607B685B0903F5001303F206736C
:102D20005B02FB60FB6818461437BD4680BC7047E9
:102D300080B584B000AF786039607868264B9847DA
:102D4000F8607868254B98470246FB681340FB60A3
:102D5000FB68002B3CD00023BB6034E0204ABB68FA
:102D60001B0113441B683A689A4226D11C4ABB686F
:102D70001B01134404331A68FB681340002B1CD05A
:102D8000174ABB681B0113440C331B681449BA680B
:102D900012010A4410681249BA6812010A44043246
:102DA0001268114698470E4ABB681B01134404334E
:102DB0001B68DB43FA681340FB60BB680133BB60F0
:102DC000BB68062B03D8FB68002BC7D100E000BF0F
:102DD00000BF1037BD4680BD432A0800592A0800AD
:102DE0008015002080B500AF0A210248024B9847A9
:102DF00000BF80BD000C0E40312D080080B500AF33
:102E00000B210248024B984700BF80BD000E0E40C8
:102E1000312D080080B485B000AF78601C4B1B6B6F
:102E200023F003031A4A43F0010313634FF40063D2
:102E3000FB6007E0FB68002B01D1012323E0FB6866
:102E4000013BFB60124B9B6E03F00803002BF1D09B
:102E50000F4B1B6B23F070020D497B6813430B6310
:102E60004FF40063FB6007E0FB68002B01D10123F6
:102E700009E0FB68013BFB60054B9B6E03F0080318
:102E8000002BF1D0002318461437BD4680BC704794
:102E900000040E4080B485B000AF78601C4B1B6B03
:102EA00023F070021A497B6813430B634FF40063ED
:102EB000FB6007E0FB68002B01D1012323E0FB68E6
:102EC000013BFB60124B9B6E03F00803002BF1D01B
:102ED0000F4B1B6B23F003030D4A43F002031363F4
:102EE0004FF40063FB6007E0FB68002B01D1012376
:102EF00009E0FB68013BFB60054B9B6E03F0080398
:102F0000002BF1D0002318461437BD4680BC704713
:102F100000040E4080B483B000AF78607B68012B62
:102F200007D1084B9B68074A43F0254343F48013BD
:102F30009360044B044A1A6000BF0C37BD4680BC46
:102F4000704700BF10120E40080000A580B400AF0B
:102F5000094B5B6903F08003002B07D0074B9B6E86
:102F600003F08003002B01D0012300E0002318466A
:102F7000BD4680BC704700BF10120E4000040E40DA
:102F800080B483B000AF7860134B1B6A124A43F4DD
:102F90005C1343F00803136200BF0F4B9B6E03F4F6
:102FA0000033002BF9D00C4B1B6A23F45C1323F085
:102FB00070037A681343084A43F45C13136200BF3A
:102FC000054B9B6E03F40033002BF9D000BF00BF0C
:102FD0000C37BD4680BC704700040E4080B400AF83
:102FE000034B9B6E03F400331846BD4680BC70470C
:102FF00000040E4080B485B000AF7860104B1B6AAF
:10300000FB60FB6823F00303FB607B681B029AB242
:10301000FB68134343F45C1343F00103FB60084A6D
:10302000FB68136200BF064B9B6E03F00103002B8D
:10303000F9D000BF00BF1437BD4680BC704700BF49
:1030400000040E4080B483B000AF0A4B1B6A7B6063
:103050007B6823F003037B607B6843F45C1343F0DD
:1030600002037B60034A7B68136200BF0C37BD46D6
:1030700080BC704700040E4080B400AF034B1B6A55
:1030800003F002031846BD4680BC704700040E40A2
:1030900080B400AF034B9B6E03F001031846BD469E
:1030A00080BC704700040E4080B400AF034B9B6EA1
:1030B00003F480331846BD4680BC704700040E40C0
:1030C00080B485B000AF78600C4B1B6AFB607B68F6
:1030D000002B04D0FB6843F08073FB6003E0FB68C7
:1030E00023F08073FB60054AFB6843F45C131362B2
:1030F00000BF1437BD4680BC704700BF00040E40BF
:1031000080B400AF034B4FF000529A6200BFBD463F
:1031100080BC704700040E4080B400AF034B9B6E30
:1031200003F002031846BD4680BC704700040E4001
:1031300080B400AF044BDB69034A23F48033D361CE
:1031400000BFBD4680BC704700040E4080B400AF95
:10315000034B9B6E03F040031846BD4680BC70478E
:1031600000040E4080B483B000AF78607B681D2BF4
:1031700001D9012315E07B681F2B11D80B4B9A69ED
:1031800001217B6801FA03F31A4001217B6801FAEF
:1031900003F39A4204D001227B689A40034B1A61E0
:1031A000002318460C37BD4680BC704700040E4013
:1031B00080B483B000AF78607B681D2B01D90123F8
:1031C00015E07B681F2B11D80B4B9A6901217B6896
:1031D00001FA03F31A4001217B6801FA03F39A42D2
:1031E00004D101227B689A40034B5A6100231846A0
:1031F0000C37BD4680BC704700040E4080B483B0DD
:1032000000AF7860054A4FF480717B6801FA03F3E0
:10321000136000BF0C37BD4680BC704700040E40F1
:1032200080B483B000AF78607B68C3F312037B6027
:10323000054B1A6F04497B6813430B6700BF0C37BB
:10324000BD4680BC704700BF00040E4080B483B010
:1032500000AF134B1B6F124A43F480131367114BDB
:103260001B69104A23F00403136120BF00BF002331
:103270007B6004E000BF00BF7B6801337B607B683C
:10328000B3F5FA7FF6D300BF054B1B6A03F00803C2
:10329000002BF9D000BF00BF0C37BD4680BC704783
:1032A00000040E4000ED00E080B586B000AFF8608D
:1032B000B9607A6000237B61FB68002B12D04FF06D
:1032C000FF3313E00B4B1B680B4A1268B9681046BA
:1032D0009847BB680133BB607B6901337B617B68C6
:1032E000013B7B607B68002BECDC7B691846183760
:1032F000BD4680BD1024002038240020B0B59CB00D
:1033000000AF78607B68052B00F0E8817B68052BB7
:1033100000F3F5817B68022B03DC7B68002B06DC65
:10332000EDE17B68033B012B00F2E9811BE0884B58
:103330001B6F874A23F480131367864B1B69854AEA
:1033400023F004031361844B01221A70BFF35F8FD3
:1033500000BF62B600BF7B68022B01D130BF01E025
:1033600020BF00BFCBE172B600BFBFF35F8F00BFCD
:10337000794B00221A70794B01221A707B68042B5A
:103380000CBF01230023DAB207F12003FB6407F12D
:103390001C03BB6407F118037B6407F114033B644F
:1033A00007F11003FB6307F10C03BB63134687F8B7
:1033B0003730674B1B6A3B63654B1B6BFB62684B8B
:1033C0001B68BB62674B1B687B62FB6C002B02D0E7
:1033D000FB6C3A6B1A60BB6C002B03D05C4B9A6A97
:1033E000BB6C1A607B6C002B03D0594BDA697B6C89
:1033F0001A603B6C002B02D03B6CFA6A1A60FB6BC4
:10340000002B02D0FB6BBA6A1A60BB6B002B02D098
:10341000BB6B7A6A1A604E4A3B6B43F45C1343F011
:1034200008031362FB6A03F00203002B0FD0FB6A50
:1034300023F0030343F00103FB62454AFB6A136375
:1034400000BF434B9B6E03F00803002BF9D0FB6ACF
:1034500003F07003002B0DD0FB6A23F07003FB62B6
:103460003B4AFB6A136300BF394B9B6E03F00803B2
:10347000002BF9D03C4B98473C4B984700BF344B4E
:103480009B6E03F40033002BF9D0314B1B6A23F001
:103490009B7323F480332E4A43F45C13136200BF02
:1034A0002B4B9B6E03F48033002BF9D02C4ABB6A64
:1034B00023F4706313602B4A7B6A23F470631360F8
:1034C00097F83730002B09D0214B1B6A23F45C138B
:1034D00023F001031E4A43F45C13136200BF1E4B2A
:1034E00001221A70BFF35F8F00BF62B600BF204B8E
:1034F000984772B600BFBFF35F8F00BF164B002224
:103500001A703D6AFC69B86979693A69FB68FD66B9
:10351000BC6678663966FA65BB6500237B65FB6E21
:1035200003F00203002B29D0094B1B6A114A1A40F1
:103530000749114B13430B62054B1B6A23F45C13C1
:1035400023F07803024A43F45C13136253E000BF94
:1035500000040E4000ED00E084020020F015002081
:1035600000080E40000A0E40013108003131080009
:103570004D320800FCFFC8FE02003701FB6E03F06D
:103580000103002B37D0604B1B6A03F00103002BB3
:1035900012D15D4B1B6A23F45C1323F003035A4AD8
:1035A00043F45C1343F00103136200BF564B9B6E60
:1035B00003F00103002BF9D0534B1B6A03F0807317
:1035C000002B0ED1504B1B6A4F4A43F09B7343F4C0
:1035D0008033136200BF4C4B9B6E03F48033002B8F
:1035E000F9D0494B1B6A23F45C1323F07803464A55
:1035F00043F45C131362BA6E444B1340002B08D0A3
:10360000414ABB6E43F0005393627B6D43F002036B
:103610007B657B6E03F48033002B06D03A4A7B6EC9
:10362000D3617B6D43F040037B653B6E03F0030386
:10363000022B02D0032B08D00FE000BF324B9B6E51
:1036400003F00203002BF9D007E000BF2E4B9B6E66
:1036500003F04003002BF9D000BF2B4B1B6B3B65E5
:103660003B6D23F070023B6E03F070032649134359
:103670000B6300BF244B9B6E03F00803002BF9D0B3
:10368000234AFB6D1360234ABB6D13601E4A3B6ED9
:10369000136300BF1C4B9B6E03F00803002BF9D093
:1036A00000BF194B9A6E7B6D1340002BF9D000BF01
:1036B000194B00221A70194B1B68002B05D0174BB1
:1036C0001B689847154B00221A60154B01221A708F
:1036D000BFF35F8F00BF62B600BF10E0114B1B69E4
:1036E000104A43F0040313610D4B01221A70BFF31B
:1036F0005F8F00BF62B600BF20BF00BF00BF00BF2A
:103700007037BD46B0BD00BF00040E400000FF078B
:1037100000080E40000A0E40F0150020F4150020AD
:103720008402002000ED00E080B400AF084B1B785D
:10373000DBB2002B14BF01230023DBB283F00103B3
:10374000DBB203F00103DBB21846BD4680BC704714
:10375000F015002080B485B000AFF860B9607A60E1
:10376000F968BA6813469B0013449B000B447033FE
:103770007A681A6000BF1437BD4680BC704780B4B9
:1037800085B000AFF860B9607A60F968BA6813462E
:103790009B0013449B000B4474337A681A6000BF8B
:1037A0001437BD4680BC704780B485B000AFF86068
:1037B000B9607A60F968BA6813469B0013449B00AD
:1037C0000B4478337A681A6000BF1437BD4680BC5A
:1037D000704780B485B000AFF860B9607A60F9686E
:1037E000BA6813469B0013449B000B4480337A68ED
:1037F0001A6000BF1437BD4680BC704780B582B0E8
:1038000000AF78607868034B984700BF0837BD4623
:1038100080BD00BF6531080080B582B000AF786020
:103820001420034B984700BF0837BD4680BD00BF3A
:10383000FD37080080B485B000AFF860B9607A60E9
:103840007B68002B0CD0FB68BA680C3253F822302E
:1038500043F00101FB68BA680C3243F822100BE018
:10386000FB68BA680C3253F8223023F00101FB6880
:10387000BA680C3243F8221000BF1437BD4680BC32
:10388000704780B485B000AFF860B9607A607B683B
:10389000002B0CD0FB68BA680C3253F8223043F08E
:1038A0000201FB68BA680C3243F822100BE0FB6897
:1038B000BA680C3253F8223023F00201FB68BA6870
:1038C0000C3243F8221000BF1437BD4680BC70474D
:1038D00080B485B000AFF860B9607A60FB68BA6800
:1038E0000C3253F8223023F0F001FB68BA680C3236
:1038F00043F82210FB68BA680C3253F822207B6828
:1039000042EA0301FB68BA680C3243F8221000BF98
:103910001437BD4680BC704780B485B000AF786076
:1039200039603A687B6813445A1E7B68B2FBF3F334
:10393000FB60FB68002B02DDFB68FF2B02DD4FF014
:10394000FF3301E0FB681BB218461437BD4680BC4C
:10395000704780B485B000AFF860B9601346FB7162
:10396000FB68BA680C3253F8223023F47F41FB68BD
:10397000BA680C3243F82210FB68BA680C3253F86C
:103980002220FB791B029BB242EA0301FB68BA6862
:103990000C3243F8221000BF1437BD4680BC70477C
:1039A00080B582B000AF1E4B7B601E4B3B607A68D7
:1039B0003B689A420CD007E07A68131D7B603B6835
:1039C000191D396012681A603B68174A9342F3D395
:1039D000164B3B6004E03B681A1D3A6000221A60F7
:1039E0003B68134A9342F6D3124B7B607B68124AC2
:1039F00023F0604323F07F0393607B68B3F1005FA3
:103A000009D37B680D4A934205D20B4B9B680A4A47
:103A100043F0005393600A4B98470A4B9847FEE7E0
:103A20002CEF080000000020B00E0020B00E002097
:103A3000642400200000080000ED00E000400020A9
:103A400089800800B50A080080B485B000AF7860AE
:103A5000104BFB60104B1B68002B02D10E4B0F4A22
:103A60001A600D4B1B68BB60BA687B681344FA6828
:103A70009A4202DA4FF0FF3306E0074B1A687B6880
:103A80001344054A1360BB6818461437BD4680BC12
:103A9000704700BFFC3F0820F815002000400820B8
:103AA00080B483B000AF78604FF0FF3318460C3716
:103AB000BD4680BC704780B483B000AF7860396089
:103AC0003B684FF400525A60002318460C37BD463D
:103AD00080BC704780B483B000AF78600123184683
:103AE0000C37BD4680BC704780B485B000AFF8602D
:103AF000B9607A60002318461437BD4680BC704711
:103B000080B582B000AF786079680248024B984770
:103B1000FEE700BF90EA0800D180080080B483B0BF
:103B200000AF7860396000BF0C37BD4680BC70477D
:103B300080B400AF4FF0FF331846BD4680BC7047DD
:103B400080B582B000AF78607B68072B2ED801A2C9
:103B500052F823F0AB3B0800753B08007D3B0800A2
:103B6000853B08008D3B0800953B08009D3B080005
:103B7000A53B080000200F4B984717E001200D4B94
:103B8000984713E000200C4B98470FE010200A4B99
:103B900098470BE02020084B984707E03E20074B52
:103BA000984703E0064B984700E000BF00BF083786
:103BB000BD4680BD152F0800812F0800F52F080095
:103BC0004530080080B582B000AF78607B68072B75
:103BD0002FD801A252F823F0F93B0800FD3B080062
:103BE000FD3B08000F3C08000F3C08000F3C08009C
:103BF000213C0800213C080001231BE00F4B9847A3
:103C00000346002B14BF01230023DBB212E00C4B50
:103C100098470346002B14BF01230023DBB209E0C1
:103C2000084B98470346002B14BF01230023DBB247
:103C300000E0002318460837BD4680BD4D2F080020
:103C4000DD2F08009130080080B483B000AF7860A9
:103C50007B68072B23D801A252F823F07D3C080093
:103C6000833C0800873C08008B3C08008F3C080020
:103C7000933C0800973C08009B3C08004FF4FA4333
:103C80000EE000230CE000230AE0084B08E0084B9C
:103C900006E0084B04E0074B02E0064B00E000237F
:103CA00018460C37BD4680BC704700BF00093D0078
:103CB00000127A00001BB70080B582B000AF034647
:103CC000FB7100BFFB791846064B9847034683F00B
:103CD0000103DBB2002BF5D100BF00BF0837BD46A2
:103CE00080BD00BFC53B080080B586B000AFF8605E
:103CF0007A603B600B46FB727B68002B07D13B6808
:103D0000002B04D1FB684FF470021A601AE0FB7AB2
:103D100018460E4B984702467B68B2FBF3F37B6173
:103D20007B693A6802FB03F37B613B68013B1A0441
:103D3000074B13407A68D2B2134343F47C52FB68BA
:103D40001A6000BF00BF1837BD4680BD493C08005F
:103D50000000FF0780B582B000AF786039603B6833
:103D6000002B08D1094B98477B681B68084A43F031
:103D70000053936205E07B681B68054A43F4803377
:103D8000D36100BF0837BD4680BD00BF01310800C8
:103D900000040E4080B582B000AF78607B68002BD5
:103DA00003D1054B9847034602E0044B984703466E
:103DB00018460837BD4680BD193108004D3108004E
:103DC00080B582B000AF0346FB71FB79033B042B47
:103DD00008D8FB791846064B9847FB791846054BDF
:103DE000984700E000BF00BF0837BD4680BD00BF58
:103DF000413B0800B93C080080B582B000AF786054
:103E000000BF7868044B98470346002BF9D0002385
:103E100018460837BD4680BD953D080080B500AF07
:103E20000620034B984703461B01184680BD00BF80
:103E3000493C080080B500AF024B984703465B0839
:103E4000184680BD1D3E080090B583B000AF062027
:103E5000094B9847381D002300220621074CA04734
:103E60003B1D01211846064B98470120054B9847FA
:103E700000BF0C37BD4690BDC13D0800E93C0800BD
:103E8000553D0800F93D080090B583B000AF1648D5
:103E9000164B98470620164B98474FF08070154BED
:103EA000984700BF144B98470346002BFAD0381DA3
:103EB000102301220621114CA0473B1D002118466A
:103EC0000F4B984700200F4B984710200E4B9847F8
:103ED0000E4B98470E4B984703461846034B98479E
:103EE00000BF0C37BD4690BD00D8B805BD0100200D
:103EF000C13D0800C1300800A9300800E93C0800B5
:103F0000553D0800F93D0800952E0800153F0800B2
:103F1000353E080080B400AF584B1B6B03F0030321
:103F2000032B00F28C80022B3FD2002B02D0012BFE
:103F300010D084E0524B5B6903F08003002B04D067
:103F4000504B4FF400421A6079E04E4B4FF4FA4266
:103F50001A6074E0494B1B6A03F08073002B03D096
:103F6000484B494A1A606AE0464B484A1A60434B3C
:103F70001B6A03F07003202B0BD0202B11D8002BD1
:103F800011D0102B0DD13F4B1B685B003D4A1360D5
:103F90000AE03C4B1A6813465B001344394A13602D
:103FA00002E000BF4BE000BF49E0344B1B6A03F066
:103FB0008073002B03D0334B334A1A601FE0314B20
:103FC000324A1A602D4B1B6A03F07003202B0BD072
:103FD000202B11D8002B11D0102B0DD1294B1B6891
:103FE0005B00284A13600AE0264B1A6813465B0000
:103FF0001344244A136002E000BF00E000BF1F4BDF
:104000001B6B03F00303022B15D11C4B9B6A1B0C8B
:10401000C3F30A0301331B4A126802FB03F3194A74
:104020001360164B9B6ADBB2164A1268B2FBF3F3BD
:10403000144A136002E0134B154A1A6000BF0F4B7D
:104040001B6B03F07003702B08D10E4B1B68114AD9
:10405000A2FB03235B080B4A13600AE0074B1B6BB0
:104060001B0903F00703074A126822FA03F3054A03
:10407000136000BFBD4680BC704700BF00040E4007
:1040800010120E4088020020001BB70000093D00FE
:10409000001C4E0EABAAAAAA80B400AF024B184671
:1040A000BD4680BC704700BF5C02002080B400AFFA
:1040B000024B1B681846BD4680BC704704160020A2
:1040C00080B400AF064B1B681B68054A1268126873
:1040D000528892B213441846BD4680BC704700BF58
:1040E0000016002080B584B000AF78600B46FB70EE
:1040F000124B9847F8607B681B781A467B6813441C
:104100007B6010E07B685B78042B11D07B685B7868
:10411000FA789A4201D17B680CE07B681B781A46DA
:104120007B6813447B60FA687B689A42EAD800E0B7
:1041300000BF002318461037BD4680BDC1400800AF
:1041400080B584B000AF03460A46FB711346BB71CD
:104150001E4B1B78002B01D1002332E01C4B1B6847
:104160001B681B79FA799A4201D3002329E0184B86
:104170001B681B68174A1360174B9847F8601AE0D2
:10418000144B1B685B78042B0DD1124B1B689B787A
:10419000FA799A4207D10F4B1B68DB78BA799A42B9
:1041A00001D101230DE00B4B1B680A4A12681278FB
:1041B0001344084A1360074B1B68FA689A42DFD819
:1041C000002318461037BD4680BD00BFFE150020F5
:1041D0000016002004160020C140080080B584B0FD
:1041E00000AF0346FB71FB79002118461E4B984730
:1041F000034683F00103DBB2002B01D000232FE044
:104200001A4B1B685A68FB799B0013441B68BB6000
:10421000BB68DB68984703461A46FB791146184687
:10422000114B9847034683F00103DBB2002B01D00A
:10423000002315E00E4B1B68FB600521F8680D4B51
:104240009847F860FB68002B05D0FB689B78184600
:10425000094B9847F1E700BFBB685B6898470123AB
:1042600018461037BD4680BD4141080000160020A9
:1042700004160020E54008007965080080B584B088
:1042800000AF03460A46FB711346BB71BA79FB794E
:10429000114618461A4B9847034683F00103DBB2D8
:1042A000002B01D0002327E0164B1B68FB60052183
:1042B000F868154B9847F860FB68002B11D0FB6835
:1042C0009878FB68D978FB689B889BB21A460F4B9D
:1042D0009847034683F00103DBB2002BE7D00023AD
:1042E0000AE000BF0A4B1B685A68FB799B00134425
:1042F0001B681B689847034618461037BD4680BDAB
:104300004141080004160020E5400800B96108009A
:104310000016002080B500AF014B984700BF80BD5C
:10432000395F080080B582B000AF0F4B1B78002BBF
:1043300010D00023FB7106E0FB7918460B4B984721
:10434000FB790133FB710A4B1B681B681B79FA79F7
:104350009A42F1D3044B00221A70064B00221A80B5
:1043600000BF0837BD4680BDFE150020DD410800B6
:1043700000160020FC15002080B582B000AF144B61
:104380001B78002B1FD00023FB7115E0114B1B681D
:104390005A68FB799B0013441B681B69002B08D0EB
:1043A0000C4B1B685A68FB799B0013441B681B6904
:1043B0009847FB790133FB71064B1B681B681B791F
:1043C000FA799A42E2D300BF0837BD4680BD00BFEC
:1043D000FE1500200016002080B500AF064BDB88DC
:1043E000022B01D0002304E002210448044B98472B
:1043F0000123184680BD00BF1C240020FC150020AE
:104400009161080080B500AF0B4BDB88022B01D017
:1044100000230EE0084B9B88DBB21846074B9847F9
:1044200003469AB2064B1A8002210548054B98476D
:104430000123184680BD00BF1C240020F965080038
:10444000081600209161080080B400AF0B4BDB8898
:10445000002B01D000230DE0084B5B88012B08D115
:10446000074B1B8823F002039AB2054B1A800123E5
:1044700000E000231846BD4680BC70471C24002085
:10448000FC15002080B500AF0A4BDB88002B01D063
:1044900000230CE0074B5B88002B07D1054B9B8862
:1044A000DBB21846044B9847034600E00023184649
:1044B00080BD00BF1C2400207567080080B500AFD8
:1044C000264BDB88002B01D0002345E0234B5B8883
:1044D000012B02D0022B02D03DE000233CE0204B18
:1044E0009847034683F00103DBB2002B30D11B4B0E
:1044F0009B88DBB2002B2DD11A4B9847174B9B881A
:104500001B0A9BB2DBB2013B032B1FD801A252F85E
:1045100023F000BF254508002F4508003945080055
:10452000434508000D4B104A1A61012314E00B4B60
:104530000E4A1A6101230FE0084B0D4A1A6101234C
:104540000AE0064B0B4A1A61012305E000BF02E0B6
:1045500000BF00E000BF0023184680BD1C240020DF
:10456000D160080025430800356A0800696A080020
:104570009D6A0800C16A080080B500AF0D4BDB885A
:10458000002B01D0002312E00A4B5B88002B0DD1D9
:10459000084B9B88DBB21846074B9847054B9B8816
:1045A000DBB21846054B9847034600E00023184647
:1045B00080BD00BF1C240020AD69080061660800B2
:1045C00080B500AF054B5B88DBB203F07F03DBB245
:1045D0001846034B984700BF80BD00BF1C24002035
:1045E000F560080080B400AF064BDB88002B01D0DB
:1045F000002303E0034B044A1A6101231846BD4619
:1046000080BC70471C240020C145080080B584B0E0
:1046100000AF0023FB71294B5B88DBB2032B20D852
:1046200001A252F823F000BF3946080043460800B3
:104630004D4608005746080004212148214B984761
:1046400011E01523FB71204BBB600CE01323FB71C1
:104650001E4BBB6007E02023FB711D4B9847B860E1
:1046600001E0002326E0FB79002B22D00023FB731E
:104670000DE0FB7BBA6813441A78FB7B91B2154AB4
:104680005B0013440A465A80FB7B0133FB73FA7BC1
:10469000FB799A42EDD3FB790133DBB25B00DAB2EE
:1046A0000C4B1A700B4B1B789BB219460948054BF3
:1046B0009847012318461037BD4680BD1C240020B2
:1046C0008C0200209161080090020020A8020020C6
:1046D00099400800BC02002080B582B000AF7F4B3B
:1046E0005B88FB717D4B5B881B0A9BB2DBB2013B95
:1046F0000E2B00F2E08001A252F823F039470800A7
:1047000089470800A3480800B7480800B7480800D0
:104710000348080019480800B7480800B7480800CF
:10472000B7480800B7480800B7480800B74808006D
:10473000B748080099480800694B9847034683F03A
:104740000103DBB2002B0AD0664B9A68654B9B686D
:104750001B789BB219461046634B9847AEE0614BFD
:104760001B68002242F010029A70002242F00202FE
:10477000DA705C4B1A685B4B1B681B789BB219465E
:104780001046594B984799E0554B98470346002BE4
:1047900019D0544B9B685B7CFA799A4201D3002371
:1047A00097E0504B1A69FB79DB00134418684D4BB6
:1047B0001A69FB79DB0013441B685B889BB21946BE
:1047C000494B984718E0474B1B685B7CFA799A4243
:1047D00001D300237DE0434B5A68FB79DB0013448F
:1047E0001868404B5A68FB79DB0013441B685B88F0
:1047F0009BB219463C4B9847384B9B6802225A7033
:104800005CE0384BDA68374BDB681B789BB21946A3
:104810001046354B984751E0314B9847034683F09B
:104820000103DBB2002B19D02E4B9B685B7CFA791D
:104830009A4201D300234CE02A4B1A69FB79DB0032
:1048400013441868274B1A69FB79DB0013441B6873
:104850005B889BB21946244B984718E0214B1B6894
:104860005B7CFA799A4201D3002332E01D4B5A68EF
:10487000FB79DB00134418681A4B5A68FB79DB009C
:1048800013441B685B889BB21946174B9847134B20
:104890009B6807225A7011E021211448124B984757
:1048A0000CE0134B9847034683F00103DBB2002B67
:1048B00003D000230DE000230BE000BF074BDA8894
:1048C000064B9B899A4203D2044BDA88034B9A81A8
:1048D000012318460837BD4680BD00BF1C240020B8
:1048E000D1600800D804002091610800ACEA0800FB
:1048F0000D46080080B500AF064BDB88012B01D0C8
:10490000002304E001210448044B98470123184682
:1049100080BD00BF1C240020FE150020916108000E
:1049200080B582B000AF374BDB88002B01D000236D
:1049300063E0354B98470346002B01D100235CE030
:10494000324B98470346002B09D02E4B5B88DBB2D5
:104950002F4A9268527C93420BDD00234DE0294B95
:104960005B88DBB22A4A1268527C934201DD002345
:1049700043E0284B9847234B5B88DAB2264B1A70EA
:10498000254B1B78002B01D1012336E01F4B9847A4
:104990000346002B0BD01E4B1A691F4B1B7803F1EB
:1049A0000053013BDB0013441C4A13600AE0184B20
:1049B0005A68194B1B7803F10053013BDB00134489
:1049C000164A13600023FB710FE0FB7900211846A3
:1049D000134B9847034683F00103DBB2002B01D051
:1049E00000230AE0FB790133FB710C4B1B681B6849
:1049F0001B79FA799A42E8D3012318460837BD4655
:104A000080BD00BF1C24002039610800D16008006F
:104A1000D804002025430800FE15002000160020C1
:104A20007D42080080B582B000AF1E4BDB88012BB1
:104A300001D0002332E01C4B1B78002B01D1002356
:104A40002CE0184B9B88FB71184B1B681B681B796B
:104A5000FA799A4201D3002320E0FB79002118461D
:104A6000134B9847034683F00103DBB2002B01D0C0
:104A7000002313E00D4B1B685A68FB799B0013441D
:104A80001B683B603B68DB68984703461A46094B46
:104A90001A7001210748084B984701231846083728
:104AA000BD4680BD1C240020FE15002000160020FD
:104AB000414108000A1600209161080080B582B0CB
:104AC00000AF144BDB88002B01D000231EE0124BFB
:104AD0001B78002B01D1002318E00E4B9B88FB7143
:104AE0000C4B5B88BB71FB7918460C4B984703460F
:104AF00083F00103DBB2002B01D0002306E0BA797A
:104B0000FB7911461846064B984703461846083766
:104B1000BD4680BD1C240020FE150020DD4108009C
:104B20007D42080080B500AF554B1B785BB2002B6F
:104B300044DA534BDB88002B01D100239DE0504B1E
:104B40001B7803F01F03002B16D14D4B5B78082B0D
:104B50000ED0082B12DC002B02D0062B04D00DE067
:104B6000484B9847034688E0474B9847034684E004
:104B7000464B9847034680E000BF00E000BF404B33
:104B80001B7803F01F03012B07D13D4B5B780A2BE9
:104B900005D13F4B984703466FE000BF00E000BFE0
:104BA000374B1B7803F01F03022B60D1344B5B782B
:104BB000002B5ED1374B984703465EE0304B1B78A5
:104BC00003F01F03002B29D12D4B5B78013B082BF1
:104BD00026D801A252F823F0054C0800214C080009
:104BE0000D4C0800214C0800FD4B0800214C08002A
:104BF000214C0800214C0800154C0800264B984712
:104C000003463AE0254B9847034636E0244B984745
:104C1000034632E0234B984703462EE000BF00E0F6
:104C200000BF174B1B7803F01F03012B07D1144B58
:104C30005B780B2B05D11C4B984703461DE000BF4A
:104C400000E000BF0E4B1B7803F01F03022B12D1B4
:104C50000B4B5B78012B02D0032B04D00CE0134BE1
:104C60009847034609E0124B9847034605E000BF0A
:104C700002E000BF00E000BF0023184680BD00BF77
:104C80001C240020D9430800D9460800F548080034
:104C9000254A080005440800E54508004944080085
:104CA000BD44080021490800BD4A080085440800A9
:104CB0007945080080B582B000AF204B1B78002BEF
:104CC00001D1002336E01E4B9B88FB711D4B1B68F6
:104CD0001B681B79FA799A4201D300232AE0FB79F9
:104CE00000211846184B9847034683F00103DBB2B6
:104CF000002B01D000231DE0124B1B685A68FB7982
:104D00009B0013441B683B603B68DB689847034685
:104D10001A46FB79114618460B4B9847034683F019
:104D20000103DBB2002B01D0002303E03B689B684A
:104D30009847034618460837BD4680BDFE1500203B
:104D40001C240020001600204141080080B582B0DC
:104D500000AF1E4B1B78002B01D1002332E01C4B0F
:104D60009B88FB710023FB7124E01A4B1B685A6877
:104D7000FB799B0013441B683B603B68DB689847EA
:104D800003461A46FB7911461846134B98470346CB
:104D900083F00103DBB2002B01D0002312E03B685B
:104DA0009B6898470346002B01D001230AE0FB795A
:104DB0000133FB71074B1B681B681B79FA799A4218
:104DC000D3D3002318460837BD4680BDFE1500200A
:104DD0001C240020001600204141080080B500AFCF
:104DE000254B00229A81244B00221A61224B00227B
:104DF0005A61214B1B78C02B09D11F4B5B78012BCB
:104E000005D1AE211D481E4B9847012332E01A4BB5
:104E10001B785BB2002B05DA174BDB88002B01D126
:104E2000002327E0144B1B7803F06003002B06D10E
:104E3000144B98470346002B01D001231AE00E4B78
:104E40001B7803F01F03012B06D10F4B9847034635
:104E5000002B01D001230DE0074B1B7803F01F034B
:104E6000022B06D1094B98470346002B01D00123A2
:104E700000E00023184680BD1C2400200003002011
:104E800091610800254B0800B54C08004D4D080005
:104E900080B483B000AFEFF310833B603B68002B1E
:104EA0000CBF01230023DBB27B6072B600BFBFF3EF
:104EB0005F8F00BF044B00221A707B6818460C37C6
:104EC000BD4680BC704700BF8402002080B483B020
:104ED00000AF78607B68002B14BF01230023DBB296
:104EE00018460C37BD4680BC7047000080B582B0C4
:104EF00000AF78607868084B98470346002B07D0CE
:104F0000064B01221A70BFF35F8F00BF62B600BF6D
:104F100000BF0837BD4680BDCD4E0800840200208A
:104F200080B582B000AF0023BB714F4B00221A70D6
:104F3000BB794E4A002122F81310BA794C49134626
:104F40009B0013445B000B44A1221A70BA794849B4
:104F500013469B0013445B000B44013320221A705C
:104F6000BA79434913469B0013445B000B44023358
:104F700000221A80BB79002B02D10123FB7102E0D1
:104F80000123FB7100BFBA79FB7998B23849134607
:104F90009B0013445B000B44043302461A80BA7929
:104FA000334913469B0013445B000B440633022233
:104FB0001A80BA792E4913469B0013445B000B44B8
:104FC000083300221A80BA792A491346DB009B1A5B
:104FD0000B4400221A70002262F03D025A70002237
:104FE00042F001029A700022DA70BA792149134620
:104FF000DB009B1A0B44043300221A70BA791D4956
:105000001346DB009B1A0B44053300221A70BA7951
:1050100018491346DB009B1A0B44063308221A700A
:10502000BA791346DB009B1A124A1A44BB7911461F
:105030001846114B9847BB791846104B98470346C2
:1050400083F00103DBB2002B01D0002307E0064B05
:105050001B78DBB20133DAB2034B1A700123184616
:105060000837BD4680BD00BF221600201416002060
:10507000181600200C1600201D170800391608000D
:1050800080B582B000AF0023FB712D4B00221A7057
:10509000FB792C4A0021D154FB792B4A0021D154B1
:1050A000FB792A4A0021D154FB79294A002122F8B0
:1050B0002310FB79264A9B00134400225A80FB7977
:1050C000244A002122F81310FB791846224B9847F6
:1050D000FB79224A0021D154FB79214A0021D15485
:1050E000FB79204A002122F82310FB791D4A9B00FE
:1050F000134400225A80FB791B4A002122F8131026
:10510000FB791846194B9847034683F00103DBB23D
:10511000002B01D000230FE0094B1B78DBB20133D9
:10512000DAB2074B1A70064B1B78DBB2012B02D1A7
:105130000F4B01221A70012318460837BD4680BD67
:1051400023160020441E0020481E00203C1E002084
:10515000381E0020401E002051550800341A00203F
:105160002C1A0020281A0020301A00202D53080085
:105170002416002080B400AF054B1B78DBB2013B46
:10518000DAB2034B1A7000BFBD4680BC704700BF47
:105190002216002080B582B000AF0A4B1B78DBB22C
:1051A000013BDAB2074B1A70064B1B78FB71FB7997
:1051B0001846054B9847054B00221A7000BF083768
:1051C000BD4680BD231600205D1608002416002071
:1051D00080B582B000AF2A4B98470346FB71294B3C
:1051E0001B785BB2002B1CDA264B1B7803F06003A4
:1051F000202B16D1234B5B78212B12D1214BDB883E
:10520000072B01D0002337E0FA791346DB009B1A05
:105210001D4A13441B4A93601A4B07229A810123AB
:105220002AE0184B1B785BB2002B24DB154B1B7854
:1052300003F06003202B1ED1124B5B78202B02D091
:10524000222B16D017E00F4BDB88072B01D0002351
:1052500012E00C4B0D4A1A61FA791346DB009B1AD7
:10526000094A1344074A9360064B07229A81012397
:1052700002E0012300E0002318460837BD4680BD48
:10528000C95208001C2400200C160020F55208000A
:1052900080B400AF00231846BD4680BC704780B480
:1052A00000AF00231846BD4680BC704780B500AFF4
:1052B000034B1B781846034B984700BF80BD00BFC7
:1052C000491E00205155080080B483B000AF084B40
:1052D0009B88DBB2012B02D10023FB7102E000238B
:1052E000FB7100BFFB7918460C37BD4680BC704788
:1052F0001C24002080B582B000AF094B98470346BC
:10530000FB71FA791346DB009B1A064A1A44FB79B3
:1053100011461846044B984700BF0837BD4680BD6C
:10532000C95208000C1600201D17080090B589B05E
:1053300002AF0346FB710023FB712F4B9847386186
:10534000FB792E4AD35CFB73FB792D4AD35CDBB22D
:10535000002B0ED1FB792B4A32F813309AB2F9792F
:10536000FB7B294849000B4430F813309BB29A422A
:1053700004D23869254B9847002339E0FB79214A4C
:10538000002122F81310FB7B002B0CBF012300230C
:10539000DAB2FB791146194AD154FB79184A012136
:1053A000D1543869194B9847FB791846184B9847E0
:1053B0000346002B03D0FB791846164B9847FB7920
:1053C000002B02D10623FB7502E00623FB7500BF0C
:1053D000FA79FB7B520013445B020F4A1A44F87DB2
:1053E0000E4B00934FF4007301210D4CA047034670
:1053F00018461C37BD4690BD914E08002C1A00205F
:10540000341A0020301A0020281A0020ED4E08001F
:105410008D5708007D160800281600202554080026
:10542000A568080090B587B002AF03463960FB71EC
:105430001346BB71BB79062B02D10023FB7302E03C
:105440000023FB7300BFFB79002B2FD1FB7B194A94
:10545000D35CDBB2002B0CBF01230023DBB2BB7398
:105460003B68002B0FD1FA7BBB7B520013445B02DD
:10547000114A1A44B879114B00934FF4007301217B
:105480000F4CA04713E0FA7BBB7B396888B20D490B
:1054900052001344024621F81320FB7B0A4A0021E4
:1054A000D154FB7B1846094B984700E000BF1437E6
:1054B000BD4690BD2C1A0020281600202554080057
:1054C000A5680800281A0020341A00202D5308006F
:1054D00080B584B000AF03463960FB711346BB71E1
:1054E000BB79852B02D10023FB7302E00023FB7301
:1054F00000BFFB79002B1DD1FB7BFA7B0F498A5C37
:10550000D2B2002A0CBF01220022D2B211460C4AAC
:105510005B000B44002122F81310FB7B094A002199
:10552000D154FB7B084A0021D154FB7B1846074B22
:10553000984700E000BF1037BD4680BD3C1E0020EC
:10554000381E0020481E0020441E0020515508002F
:1055500090B589B002AF0346FB710023FB71FB7964
:10556000634AD35CDBB2002B40F0BB80614B9847B1
:105570000346002B09D0FB795F4A32F813405F4B9A
:10558000984703469C420AD1AEE0FB795A4A32F86A
:1055900013405B4B984703469C4200F0A480594B54
:1055A00098473861FB79584AD35CFB75FA79FB7DE3
:1055B00056495200134431F81330002B1FD1544B7D
:1055C0001B8801339AB2524B1A804A4B98470346C4
:1055D00083F00103DBB2002B03D04D4B1B88632B00
:1055E00009D9444B98470346002B08D0484B1B88E9
:1055F000B3F5487F03D23869464B984774E0444B73
:1056000000221A80FB79444AD35CDBB283F00103A9
:10561000DBB2002B0AD0FB7D002B0CBF0123002343
:10562000DAB2FB791146384AD15406E0FB7D002BF3
:105630000CBF01230023DBB2FB75FB792C4A01214F
:10564000D1543869334B9847FA79FB7D2F49520082
:10565000134431F81330B3F5007F14BF0123002346
:10566000FB73FB7B002B16D0224B98470346002B85
:1056700008D0FC79214B984703461A461E4B23F865
:1056800014200DE0FC791E4B984703461A461A4B2E
:1056900023F8142004E0FB79174A002122F81310A4
:1056A000FB79002B02D18523BB7502E08523BB75F6
:1056B00000BFFA79FB7D520013445B02174A9C1825
:1056C000FA79FB7D11495200134431F813301A4620
:1056D000F97BB87D124B009313462246114CA0472C
:1056E00002E000BF00E000BF1C37BD4690BD00BF18
:1056F000441E0020D1600800401E00207561080093
:1057000055610800914E08003C1E0020381E002004
:105710004A1E0020ED4E0800481E0020381A0020C6
:10572000D1540800A568080080B586B000AF0346D4
:10573000FB710023FB71104B98477861FB790F4A8E
:1057400032F813307B82FB79FA790D498A5CD2B248
:1057500011460C4A5B000B4432F813309BB21A46D8
:105760007B8AD31AFB607869074B9847FB68184619
:105770001837BD4680BD00BF914E0800301A00208A
:105780002C1A0020281A0020ED4E080080B582B0A7
:1057900000AF0346FB71FB791846064B984703465A
:1057A000002B14BF01230023DBB218460837BD4687
:1057B00080BD00BF2957080080B588B000AF034600
:1057C000B9607A60FB73BB68FB610023FB73364BE7
:1057D00098477861FB7B354A32F813307B82FB7B3C
:1057E000334AD35C7B74FA7B7B7C3249520013448E
:1057F00031F813309BB27A8A9A422CBF01230023DE
:105800003B7478692C4B98473B7C002B09D02B4B81
:105810001B78DBB283F00103DBB2002BD7D07B68AF
:105820003DE0FA7B7B7C23495200134431F813306E
:105830009BB21A467B8AD31ABB61BA697B689A42CB
:1058400001D97B68BB61F97B7A7C7B8A49000A4479
:10585000520213441A4A1344BA691946F869194B9B
:105860009847FB7B114A32F8133099B2BB699AB260
:10587000FB7B0A4491B20D4A22F81310FA69BB6906
:105880001344FB617A68BB69D31A7B60FB7B1846C3
:105890000D4B98477B68002B00D098E700231846F3
:1058A0002037BD4680BD00BF914E0800301A002051
:1058B0002C1A0020281A0020ED4E08002416002083
:1058C00028160020F98008002D53080080B586B006
:1058D00000AF0346FB710023FB71204B98473861F2
:1058E000FB791F4AD35CFB73FA79FB7B1D4952009D
:1058F000134431F813307B617B69B3F5007F21D10C
:10590000FB79194AD35CDBB283F00103DBB2002BD5
:1059100018D0FB79154AD35CDBB283F00103DBB20C
:10592000002B0FD0FB79114A0121D154FB7B002BB6
:105930000CBF01230023DAB2FB791146084AD15487
:1059400000237B617B69C3F50073BB603869084B3A
:105950009847BB6818461837BD4680BD914E080071
:105960003C1E0020381E0020441E0020481E00203F
:10597000ED4E080080B582B000AF0346FB71FB79A5
:105980001846064B98470346002B14BF01230023FB
:10599000DBB218460837BD4680BD00BFCD580800B1
:1059A000F0B587B000AF03463960FB710023FB718F
:1059B000FA792A491346DB009B1A0B4406331B78FD
:1059C000092B0CBF01230023FB75FB791846244BE0
:1059D0009847034683F00103DBB2002B09D0214B2B
:1059E0001B78DBB283F00103DBB2002BEDD0002388
:1059F0002FE01D4B98473861FB791C4AD35CFB7341
:105A0000FC79F87BFA79FB7B194D5100194435F884
:105A100011104D1CAEB2164D52001344324625F8FB
:105A200013200D463B68D9B2124A630003445B025F
:105A300013442B440A461A7038690F4B9847FB7D74
:105A4000002B05D00023FB753B681B123B60BCE7B5
:105A5000012318461C37BD46F0BD00BF0C160020C0
:105A60007559080024160020914E08003C1E0020A5
:105A7000381E0020381A0020ED4E080080B500AF17
:105A80000B4B98470346DA780A4B1A70094B1B7880
:105A9000002B09D1084B9847034683F00103DBB282
:105AA000002B01D0002300E00123184680BD00BF79
:105AB000AD4008004C1E0020D50E080080B500AF98
:105AC000034B1B78002B01D1024B984700BF80BDD0
:105AD0004C1E00200D0F080080B500AF104B1B7846
