:0200000280007C
:1000000000400820AD4408009954080099540800A5
:100010009954080099540800995408000000000001
:1000200000000000000000000000000099540800DB
:1000300099540800000000009954080099540800E1
:1000400099540800995408009954080099540800DC
:1000500099540800995408009954080099540800CC
:100060009954080099540800D9260800F126080080
:10007000995408007D1D0800A11D0800C51D080039
:10008000995408009954080099540800995408009C
:10009000995408009954080099540800995408008C
:1000A000995408009954080099540800995408007C
:1000B00099540800E52808009954080010B5054C2B
:1000C000237833B9044B13B10448AFF30080012304
:1000D000237010BDE80D0020000000003CDE080089
:1000E00008B5034B1BB103490348AFF3008008BDBB
:1000F00000000000EC0D00203CDE080080B582B05E
:1001000000AF78607B68072B2ED801A252F823F04D
:1001100067010800310108003901080041010800A9
:100120004901080051010800590108006101080057
:1001300000200F4B984717E001200D4B984713E024
:1001400000200C4B98470FE010200A4B98470BE01B
:100150002020084B984707E03E20074B984703E0D4
:10016000064B984700E000BF00BF0837BD4680BD82
:10017000294A0800954A0800094B0800594B080015
:1001800080B582B000AF78607B68072B2FD801A2C2
:1001900052F823F0B5010800B9010800B9010800C0
:1001A000CB010800CB010800CB010800DD010800ED
:1001B000DD01080001231BE00F4B98470346002B8D
:1001C00014BF01230023DBB212E00C4B9847034617
:1001D000002B14BF01230023DBB209E0084B984732
:1001E0000346002B14BF01230023DBB200E00023F1
:1001F00018460837BD4680BD614A0800F14A08002C
:10020000A54B080080B483B000AF78607B68072BF3
:1002100023D801A252F823F0390208003F02080057
:1002200043020800470208004B0208004F02080082
:1002300053020800570208004FF4FA430EE000236F
:100240000CE000230AE0084B08E0084B06E0084BEE
:1002500004E0074B02E0064B00E0002318460C3791
:10026000BD4680BC704700BF00093D0000127A0007
:10027000001BB70080B582B000AF0346FB7100BF22
:10028000FB791846064B9847034683F00103DBB21F
:10029000002BF5D100BF00BF0837BD4680BD00BFB1
:1002A0008101080080B586B000AFF8607A603B60DD
:1002B0000B46FB727B68002B07D13B68002B04D1F7
:1002C000FB684FF470021A601AE0FB7A18460E4B76
:1002D000984702467B68B2FBF3F37B617B693A681F
:1002E00002FB03F37B613B68013B1A04074B13409D
:1002F0007A68D2B2134343F47C52FB681A6000BFA1
:1003000000BF1837BD4680BD050208000000FF078A
:1003100080B582B000AF786039603B68002B08D1AF
:10032000094B98477B681B68084A43F00053936267
:1003300005E07B681B68054A43F48033D36100BF46
:100340000837BD4680BD00BF154C080000040E40B4
:1003500080B582B000AF78607B68002B03D1054B7D
:100360009847034602E0044B98470346184608376F
:10037000BD4680BD2D4C0800614C080080B582B0A0
:1003800000AF0346FB71FB79033B042B08D8FB79D4
:100390001846064B9847FB791846054B984700E0EE
:1003A00000BF00BF0837BD4680BD00BFFD0008008C
:1003B0007502080090B585B000AF78607868214B71
:1003C00098470346002B39D17B68002B03D07B680C
:1003D000012B15D024E006201B4B98474FF080706E
:1003E0001A4B984700BF1A4B98470346002BFAD088
:1003F00007F10C00102301220621164CA0470FE044
:10040000154B98470346002B02D106200E4B984708
:1004100007F10C000023002206210E4CA04700BF6C
:1004200007F10C03796818460C4B984700BF7868B1
:10043000044B98470346002BF9D000E000BF143767
:10044000BD4690BD510308007D030800D54B080050
:10045000BD4B0800A50208008D4B080011030800E1
:1004600080B483B000AF78607B6801221A6000BF5F
:100470000C37BD4680BC704780B483B000AF786055
:100480007B685B6843F001027B685A6000BF0C37F1
:10049000BD4680BC7047000080B582B000AF034607
:1004A000FB7172B600BFBFF35F8F00BF054B002228
:1004B0001A70FB791846044B984700BF0837BD46B1
:1004C00080BD00BFAA0300209962080080B483B0F9
:1004D00000AF0023FB7106E0FB79084A0021D154EC
:1004E000FB790133FB71FB79042BF5D9034B012216
:1004F0005A7100BF0C37BD4680BC704734180020CD
:1005000080B483B000AF0023FB71094B3B6005E072
:100510003B6801333B60FB790133FB713B681B781F
:10052000002BF5D0FB7918460C37BD4680BC7047D0
:100530003418002080B582B000AF0B4B98470346BB
:10054000FB71FB79002B08D1084B01221A70BFF315
:100550005F8F00BF62B600BF03E0FB791846044B13
:1005600098470837BD4680BD01050800AA03002052
:100570009904080080B483B000AF786039607B686C
:1005800000221A6000BF0C37BD4680BC70470000D7
:1005900080B483B000AF78600B46FB707B681B684B
:1005A00023F007027B681A60FB780A2B39D801A276
:1005B00052F823F0E1050800E1050800E105080014
:1005C000EB050800EB050800EB050800EB0508004B
:1005D000EB050800F90508000706080015060800E5
:1005E0007B681A687B681A601BE07B681B6843F0B5
:1005F00001027B681A6014E07B681B6843F002020A
:100600007B681A600DE07B681B6843F003027B681F
:100610001A6006E07B681B6843F004027B681A607E
:1006200000BF00BF0C37BD4680BC704780B483B0AC
:1006300000AF786039607B681B6823F070027B68CC
:100640001A607B681A683B681A437B681A6000BFAF
:100650000C37BD4680BC704780B582B000AF786073
:10066000396007497B681A683B68103341F82320DA
:100670003868044B984700BF0837BD4680BD00BFAF
:1006800000040E40114D080080B582B000AF034653
:10069000FB71FB790A2B00F2A28001A252F823F031
:1006A000CD060800EF0608000F0708002F07080016
:1006B0004F0708006F0708008F070800AF07080002
:1006C000CF070800D7070800DF07080000204E4BBF
:1006D0009847034683F00103DBB2002B00F08180D2
:1006E00000204A4B98470020494B984779E0012069
:1006F000454B9847034683F00103DBB2002B72D0D1
:100700000120424B98470120414B98476BE0022063
:100710003D4B9847034683F00103DBB2002B64D0C6
:1007200002203A4B98470220394B98475DE003205E
:10073000354B9847034683F00103DBB2002B56D0BC
:100740000320324B98470320314B98474FE0042059
:100750002D4B9847034683F00103DBB2002B48D0B2
:1007600004202A4B98470420294B984741E0052054
:10077000254B9847034683F00103DBB2002B3AD0A8
:100780000520224B98470520214B984733E006204F
:100790001D4B9847034683F00103DBB2002B2CD09E
:1007A00006201A4B98470620194B984725E007204A
:1007B000154B9847034683F00103DBB2002B1ED094
:1007C0000720124B98470720114B984717E000204D
:1007D000104B984714E001200E4B984710E000BFE3
:1007E0000EE000BF0CE000BF0AE000BF08E000BF61
:1007F00006E000BF04E000BF02E000BF00E000BF71
:1008000000BF0837BD4680BD81010800FD0008001B
:1008100075020800B503080080B500AF2F4B98475C
:100820002F4B984709202F4B98472F4929202F4BB2
:1008300098472D492A202D4B98472B492B202B4B8D
:10084000984729492C20294B984727492D20274B89
:10085000984725492E20254B984723492F20234B85
:10086000984721493020214B98471F4933201F4B7F
:1008700098471D4937201D4B98471B4934201B4B77
:1008800098474FF0405240F2BF111948194B984712
:1008900040F2BF111648184B98474FF040512620A0
:1008A000124B98474FF060513120104B9847134A34
:1008B00000211348134B9847134A00211048134B4B
:1008C0009847134A00210E48124B984703220021F3
:1008D0000B48114B984700BF80BD00BF6D680800F2
:1008E000AD150800794C08000100000869520800A5
:1008F000000E0E40995308007551080000010101D7
:1009000000000E407D25080001010301A725080015
:1009100002000400D1250800FB25080080B586B040
:1009200000AFF8600B467A60FB7207F11403F968B8
:1009300018460E4B9847FB7A18460D4B9847FA7AA3
:1009400007F11403114618460A4B984707F11403A0
:1009500079681846084B984707F11403F968184658
:10096000064B984700BF1837BD4680BD7505080087
:1009700089060800910508002D06080059060800A0
:1009800080B584B000AF4FF000610D202D4B98472B
:100990004FF000610E202B4B98474FF000610F2065
:1009A000284B98474FF040510320264B984703208F
:1009B000254B98474FF040510420224B9847042084
:1009C000214B98470023BB6002E0BB680133BB604A
:1009D000BB68B3F5FA7FF8D304201C4B984700237B
:1009E0007B6002E07B6801337B607B68B3F5FA7F54
:1009F000F8D31748174B984717491848184B98478A
:100A00000346FB81FB89DBB21A4600211048154BD7
:100A100098470F48144B9847002200210C48134B6D
:100A20009847082200210A48114B984701220021CB
:100A30000748104B984706480F4B984700BF1037A0
:100A4000BD4680BD695208000952080039520800AD
:100A500000800040F523080000D8B80500A60E006D
:100A6000F52408002F250800790408001124080047
:100A7000AD2408005F2408006104080080B586B03A
:100A800000AF3B1D102118461C4B98471C4B012200
:100A90001A70BFF35F8F00BF62B600BF194B984753
:100AA000194B9847194B984700237B6111E07B69EC
:100AB000DB00174A98187B699B0007F11802134462
:100AC00053F8143C1A461349134B98477B6901337A
:100AD0007B617B69032BEAD90D4B002283F8202030
:100AE00000220A2101200D4B98470D4B98470D4BD2
:100AF00098470D4B98470D4B9847FCE7391F080066
:100B0000AA030020CD0408009D4808001908080029
:100B10005C02002088D90800D97108001D0908006E
:100B2000810908001D5708002D6C080035050800D4
:100B300080B582B000AF78607B68072B2ED801A209
:100B400052F823F09B0B0800650B08006D0B0800A2
:100B5000750B08007D0B0800850B08008D0B080045
:100B6000950B080000200F4B984717E001200D4B14
:100B7000984713E000200C4B98470FE010200A4BD9
:100B800098470BE02020084B984707E03E20074B92
:100B9000984703E0064B984700E000BF00BF0837C6
:100BA000BD4680BD294A0800954A0800094B080047
:100BB000594B080080B582B000AF78607B68072B86
:100BC0002FD801A252F823F0E90B0800ED0B080022
:100BD000ED0B0800FF0B0800FF0B0800FF0B0800DF
:100BE000110C0800110C080001231BE00F4B984763
:100BF0000346002B14BF01230023DBB212E00C4B91
:100C000098470346002B14BF01230023DBB209E001
:100C1000084B98470346002B14BF01230023DBB287
:100C200000E0002318460837BD4680BD614A080031
:100C3000F14A0800A54B080080B582B000AF03461A
:100C4000FB7100BFFB791846064B9847034683F0BB
:100C50000103DBB2002BF5D100BF00BF0837BD4652
:100C600080BD00BFB50B080080B500AF014B9847B1
:100C700000BF80BDFD2B080080B500AF034B0022F4
:100C80001A70034B984700BF80BD00BF040E0020C0
:100C9000456C080080B500AF014B984700BF80BD90
:100CA0005D6C080080B500AF084B1B78DBB283F0A9
:100CB0000103DBB2002B06D1054B984703461846CB
:100CC000044B984700E000BF80BD00BF7D020020BC
:100CD000C52C0800716C080080B500AF074B0122DD
:100CE0001A70074B01221A70064A4FF480610648B9
:100CF000064B98470123184680BD00BF040E002014
:100D00007D0200207D130800080E0020AD4E080073
:100D100080B400AF034B00221A7000BFBD4680BCF8
:100D2000704700BF7D02002080B582B000AF0F4B3E
:100D30001B687B600D4B5B683B600D4B984700BFA9
:100D400002200C4B98470346002BF9D038680A4B19
:100D500098470A4A79684FF0C040094B9847044BBE
:100D6000984700BF0837BD4680BD00BF081200206D
:100D70007D1408003D140800AD1408004513080058
:100D8000814E080080B582B000AF0F4B1B687B60BE
:100D90000D4B5B683B600D4B984700BF05200C4B2B
:100DA00098470346002BF9D038680A4B98470A4BFE
:100DB0004FF0C0421A60094A7B681360034B9847A2
:100DC00000BF0837BD4680BD081200207D14080012
:100DD0003D140800AD1408004C12002050120020F1
:100DE00080B584B000AF164B1B68BB60144B5B68CA
:100DF0007B60144B3B60144B984700BF0120134BA2
:100E000098470346002BF9D07868114B9847002388
:100E1000FB600BE03A68FB681A440E4B1968FB68EC
:100E20000B4412781A70FB680133FB60FA68BB68E8
:100E30009A42EFD3044B984700BF1037BD4680BDA0
:100E400008120020101200207D1408003D14080034
:100E5000AD1408008002002080B582B000AF0A4BBC
:100E60005B687B60094B984700BF0420084B98479C
:100E70000346002BF9D07868064B9847034B9847F8
:100E800000BF0837BD4680BD081200207D14080051
:100E90003D140800AD14080080B500AF194B5B8805
:100EA000DBB2032B14D0032B29DC012B02D0022B45
:100EB0000AD024E00620144B98470620134B98478D
:100EC0001020134B98471BE01020124B984717E057
:100ED00001220C211048114B9847114B984700BF35
:100EE000104B5B6803F40033002BF9D10D4B1B68EA
:100EF0000C4A43F0254343F005031360FEE700BFAF
:100F000000BF80BD10180020310B0800390C08000C
:100F100029490800A949080000080E40694F080047
:100F2000690C080000120E4080B500AF0D4B5B88C5
:100F3000A22B0FD0A22B11DCA02B02D0A12B03D00F
:100F40000CE0094B98470AE0084B9847084B0A22E7
:100F50001A7004E0064B00221A7000E000BF00BFC8
:100F600080BD00BF10180020CD1508004D160800E8
:100F70004812002080B500AF2620034B984726205A
:100F8000024B984700BF80BD095208003952080043
:100F900080B500AF00210248024B984700BF80BDDA
:100FA000000009401518080080B582B000AF104B52
:100FB000DA880F4B9B899A4216D800237B600CE09D
:100FC0000B4B9A687B6813441B781A46002109482A
:100FD000094B98477B6801337B60054BDB881A46D9
:100FE0007B689342ECDB00E000BF0837BD4680BD64
:100FF0001018002000000940E11B080080B500AF78
:10100000094BDB88022B0CD8074B9B681B781A46D0
:10101000054B9B6801331B7819461046034B9847D4
:1010200000E000BF80BD00BF10180020411E080076
:1010300080B500AF4C4B4D4A9A604B4BDB88402B40
:1010400028BF40239AB2484B9A81494B00221A701C
:10105000454B5B78103B162B7AD801A252F823F04F
:10106000BD100800E9100800D3100800FF100800A8
:1010700051110800511108002911080051110800F0
:1010800051110800511108001F1108001511080026
:1010900051110800511108005111080051110800A8
:1010A00051110800511108003311080051110800B6
:1010B000511108003D1108004711080006202D4B72
:1010C00098470346002B45D0274B2B4A1A61012332
:1010D00048E00620274B98470346002B3CD0224B84
:1010E000264A1A6101233DE00620224B9847034619
:1010F000002B33D01C4B224A1A61012332E0062018
:101100001C4B98470346002B2AD0174B1D4A1A61E7
:10111000012327E0144B1C4A1A61012322E0124BE1
:101120001A4A1A6101231DE00F4B194A1A61012363
:1011300018E00D4B174A1A61012313E00A4B164AB7
:101140001A6101230EE0084B144A1A61012309E0D9
:10115000002307E000BF04E000BF02E000BF00E0A2
:1011600000BF0023184680BD101800200812002080
:10117000481200203D140800290D0800850D0800C4
:10118000590E0800E10D0800910F0800A90F080092
:10119000290F0800990E0800750F0800FD0F0800C0
:1011A00080B582B000AF5C4B5B78123B142B00F231
:1011B000AD8001A252F823F00D1208000D130800B3
:1011C0000D130800AF1208000D1308008D1208005F
:1011D0000D1308000D1308004F1208003912080003
:1011E0000D1308000D1308000D1308000D1308005F
:1011F0000D1308000D1308000D1308000D1308004F
:101200000D1308000D130800E9120800434B1B687A
:10121000414A9360424B1B689AB23F4B9A81404BC4
:1012200000221A603F4B98470346052B02D100204D
:101230003D4B984701236AE001213C483C4B9847CD
:101240000346002B14BF01230023DBB25FE0002321
:101250007B600CE03548374B98470346D9B2364A95
:101260007B6813440A461A707B6801337B602A4B03
:10127000DB881A467B689342ECD3274B2E4A9A6050
:101280007B689AB2244B9A81012340E02A4B0122C9
:101290001A70294B01225A70274B00229A701E4B5C
:1012A000254A9A601C4B03229A8101232FE00720D4
:1012B000224B98470346002B14BF01230023DBB2C7
:1012C0001A461D4B1A701C4B00225A701A4B0022F2
:1012D0009A70194B0022DA700F4B174A9A600E4B26
:1012E00004229A81012312E00B4B5B88DBB2184683
:1012F000134B98470346DAB20F4B1A70064B0E4A4F
:101300009A60054B01229A81012300E000231846D0
:101310000837BD4680BD00BF101800204C120020C9
:1013200050120020951408003D14080000000940E8
:1013300015180800891C080054120020D951080013
:10134000B11E080080B582B000AF03463960FB7162
:101350001346BB71FB79002B08D1064B9847034617
:10136000022B04D10020044B984700E000BF08374F
:10137000BD4680BD951408003D14080080B584B0BA
:1013800000AF03463960FB711346BB71FB79002B3C
:1013900006D0224A4FF480612148224B984739E019
:1013A000214B1B78002B1AD10023FB600BE01F4B55
:1013B0001A68FB6813441A49FA680A4412781A70CA
:1013C000FB680133FB60FA683B689A42EFD3184B25
:1013D00098470346042B17D1164B984714E0124B3D
:1013E0001B780A2B10D10023BB6009E00C4ABB68B4
:1013F00013441B781846104B9847BB680133BB60F9
:10140000BA683B689A42F1D3044A4FF480610448B9
:10141000044B98471037BD4680BD00BF7D130800C0
:10142000080E0020AD4E0800481200208002002067
:10143000951408007D1408006116080080B584B07A
:1014400000AF0346FB710023FB60094B9847094B33
:101450001B78DBB2002B04D10123FB60054AFB792A
:101460001370054B9847FB6818461037BD4680BD82
:10147000B969080094120020116A080080B400AF16
:10148000034B00221A7000BFBD4680BC704700BFEE
:101490009412002080B400AF034B1B78DBB21846D7
:1014A000BD4680BC704700BF9412002080B582B05A
:1014B00000AF78600C4B9B6B03F040027B6803F03D
:1014C0003F031A437B685B0003F4C0730649134370
:1014D0008B633120054B98473120054B984700BF5F
:1014E0000837BD4680BD00BF000E0E4039520800CF
:1014F0000952080080B483B000AF78607B68072B86
:1015000023D801A252F823F0291508002F1508004E
:1015100033150800371508003B1508003F15080073
:1015200043150800471508004FF4FA430EE0002366
:101530000CE000230AE0084B08E0084B06E0084BEB
:1015400004E0074B02E0064B00E0002318460C378E
:10155000BD4680BC704700BF00093D0000127A0004
:10156000001BB70080B500AF0620034B9847034629
:101570001B01184680BD00BFF514080080B500AF00
:10158000024B984703465B08184680BD6515080066
:1015900080B582B000AF78607868034B984700BF91
:1015A0000837BD4680BD00BF794C080080B500AF4C
:1015B0004FF060511920034B98471920024B984770
:1015C00000BF80BD695208000952080080B584B090
:1015D00000AF1920144B9847144B3B60C0237B602D
:1015E0000023FB600023BB600D20114B9847114B7B
:1015F000984702463B4619460F48104B98474FF014
:10160000006112200E4B98474FF0006111200C4BE7
:1016100098470C4B4FF4C0225A6007480A4B984732
:1016200000BF1037BD4680BD395208008096980033
:10163000911508007D15080000000940552108009B
:1016400069520800000C0E406522080080B500AF0A
:101650001920024B984700BF80BD00BF0952080007
:1016600080B582B000AF0346FB71FB791946034891
:10167000034B984700BF0837BD4680BD00000940B6
:101680008B23080080B483B000AF0346FB71FB7965
:1016900003F01F03012202FA03F1054A97F907300C
:1016A0005B0942F8231000BF0C37BD4680BC704771
:1016B00000E100E080B483B000AF0346FB71FB792A
:1016C00003F01F03012202FA03F1064A97F90730DB
:1016D0005B09603342F8231000BF0C37BD4680BC65
:1016E000704700BF00E100E080B483B000AF034664
:1016F0003960FB7197F90730002B0BDA3B68DAB2DF
:101700000C49FB7903F00F03043B1201D2B20B44E6
:101710001A7609E03B68DAB2074997F907301201F7
:10172000D2B20B4483F8002300BF0C37BD4680BC07
:10173000704700BF00ED00E000E100E080B483B03E
:1017400000AF78607B68072B23D801A252F823F002
:1017500071170800771708007B1708007F1708002B
:1017600083170800871708008B1708008F170800D9
:101770004FF4FA430EE000230CE000230AE0084B8C
:1017800008E0084B06E0084B04E0074B02E0064B7C
:1017900000E0002318460C37BD4680BC704700BFF0
:1017A00000093D0000127A00001BB70080B500AFB1
:1017B0000620034B984703461B01184680BD00BF17
:1017C0003D17080080B500AF024B984703465B0801
:1017D000184680BDAD17080080B582B000AF7860B4
:1017E0007868034B984700BF0837BD4680BD00BFEF
:1017F000794C080080B500AF4FF000611320044B16
:1018000098474FF000611220014B984700BF80BD00
:101810006952080080B58AB000AF78600B46FB7053
:101820009B4B5B88DBB2103B082B00F2BF8101A20F
:1018300052F823F059180800A3190800251A0800C7
:10184000AD1B0800491A0800AD1B0800AD1B0800BD
:10185000AD1B0800271B0800FB78002B06D08C4B23
:10186000DB88042B40F099810123A0E1884BDB88C1
:10187000072B40F09281864B9B681B687B627B6ADA
:10188000FB60834B9B6804331B78022B0DD0022B2B
:101890000FDC002B02D0012B03D00AE00023BB6138
:1018A00009E04FF48053BB6105E04FF40053BB6186
:1018B00001E00023BB61764B9B6805331B78042B4A
:1018C0001FD801A252F823F0DD180800E51808001F
:1018D000ED180800F3180800FB1808004FF4006327
:1018E0007B6111E04FF400737B610DE000237B61AD
:1018F0000AE04FF4C0637B6106E04FF480637B61D4
:1019000002E04FF400637B61614B9B6806331B78F8
:10191000072B0CD0072B0DDC052B02D0062B03D098
:1019200008E000233B6107E040233B6104E08023A3
:101930003B6101E0C0233B610023FB617B68554AAA
:10194000934209D10D20544B98475448544B984723
:101950005448534B98471AE07B68534A934209D145
:101960000E204D4B984751484D4B984750484C4B93
:1019700098470CE07B684F4A934208D10F20464BB2
:1019800098474D48464B98474C48454B98474C4BD9
:101990009847024607F10C0319467868494B984767
:1019A000FBE0FB7883F00103DBB2002B00F0F78053
:1019B0007868454B98477868444B98470121786888
:1019C000434B98477B68334A93420CD1414B98472D
:1019D0000D20414B984705210D20404B98470D2085
:1019E0003F4B9847DBE07B682F4A93420AD10E2099
:1019F000394B984705210E20384B98470E20384B1D
:101A00009847CCE07B682B4A934240F0C8800F2077
:101A1000314B984705210F20304B98470F20304B12
:101A20009847BCE0FB7883F00103DBB2002B00F0A9
:101A3000B88078682B4B984778682A4B98470321E1
:101A40007868294B9847ACE0FB78002B00F0AB801E
:101A50000F4BDB88042B40F0A6800D4B234A9A6085
:101A60000B4B04229A817B680A4A934205D10D48A8
:101A70001F4B98470346BB6045E07B680A4A934288
:101A800038D10B481A4B98470346BB603BE000BF78
:101A90001018002000000940D91708008417002002
:101AA000916808003C1400200040094054150020B3
:101AB000F816002000800940B01300206C160020AA
:101AC000C5170800D12008009522080065220800EB
:101AD000DD220800F5170800B5160800E916080011
:101AE00085160800AD220800F72208009812002091
:101AF000896908007B68304A934204D12F48304BF3
:101B000098470346BB6007F108031A782D4B1A70FB
:101B10007A7A2C4B5A70BA7A2A4B9A70FA7A294BF5
:101B2000DA70012343E0FB78002B3ED0264BDB88A4
:101B3000042B3AD1244B234A9A60234B04229A81E6
:101B40007B68224A934205D121481D4B98470346A2
:101B5000BB6012E07B681F4A934205D11E48184BB8
:101B600098470346BB6008E07B68134A934204D160
:101B70001A48134B98470346BB6007F108031A78CD
:101B8000104B1A707A7A0F4B5A70BA7A0D4B9A70C2
:101B9000FA7A0C4BDA70012309E000BF06E000BFBF
:101BA00004E000BF02E000BF00E000BF00231846D1
:101BB0002837BD4680BD00BF008009406C1600205C
:101BC00089690800981200201018002000000940C0
:101BD000841700200040094054150020B013002055
:101BE00080B584B000AFF860B9601346FB71BB6884
:101BF000002B13D1FB68194A934202D1184BBB60EA
:101C00000CE0FB68174A934202D1174BBB6005E01A
:101C1000FB68164A93421CD1154BBB60FB7900222E
:101C20001946B868134B9847F868134B9847034612
:101C300003F00203002B0DD1B868104B9847034600
:101C40001946F8680E4B98470221F8680D4B9847E3
:101C500000E000BF1037BD4680BD00BF0000094056
:101C600084170020004009405415002000800940DE
:101C7000B0130020B368080011230800176908009A
:101C80008B230800DD22080080B584B000AF7860A7
:101C90000023FB60FB68002B16D17B680E4A934241
:101CA00002D10E4BFB600FE07B680D4A934202D1DC
:101CB0000C4BFB6008E07B680B4A934202D10B4B54
:101CC000FB6001E0FF2303E0F868094B98470346F7
:101CD00018461037BD4680BD000009403C14002066
:101CE00000400940F8160020008009406C160020D2
:101CF0001769080080B586B000AFF860B9607A60F7
:101D0000F868184B984778617B6903F00103002B52
:101D10000BD0FB689B69C3F308033B613B69DBB2F3
:101D200000221946B868104B98477B6903F00203FC
:101D3000002B12D078680D4B98470346002B08D033
:101D400078680B4B984703461946F868094B984743
:101D500003E00221F868084B984700BF1837BD46DA
:101D600080BD00BF27230800B36808006169080030
:101D7000176908008B230800F722080080B500AF20
:101D8000034A04490448054B984700BF80BD00BF83
:101D9000841700203C14002000000940F51C0800B6
:101DA00080B500AF034A04490448054B984700BF7B
:101DB00080BD00BF54150020F816002000400940E7
:101DC000F51C080080B500AF034A04490448054BE0
:101DD000984700BF80BD00BFB01300206C160020E4
:101DE00000800940F51C080080B483B000AF786023
:101DF0000B467B807A887B68DA6000BF0C37BD4673
:101E000080BC704780B483B000AF78607B689B680B
:101E10009BB218460C37BD4680BC704780B483B077
:101E200000AF78607B681B6903F40073002B01D05E
:101E3000012300E0002318460C37BD4680BC7047E4
:101E400080B582B000AF03460A46FB711346BB71F2
:101E50000320124B9847FB799BB219461048114B4F
:101E6000984700BF0E48104B98470346002BF9D007
:101E7000BB799BB219460A480A4B984700BF0848ED
:101E8000094B98470346002BF9D00320074B98478E
:101E9000012318460837BD4680BD00BF39520800EF
:101EA00000800040E91D08001D1E080009520800BE
:101EB00080B584B000AF0346FB7101210020174BB1
:101EC00098470320164B9847FB799BB21946154853
:101ED000154B984700BF1348144B98470346002BF7
:101EE000F9D000210F48104B984700BF0D480F4B09
:101EF00098470346002BF9D00A480D4B98470346F4
:101F0000FB7303200B4B984700210020034B98479D
:101F1000FB7B18461037BD4680BD00BF411E080040
:101F20003952080000800040E91D08001D1E08000D
:101F3000051E08000952080090B58BB002AF78600A
:101F4000396007F10C03042200920F220E2114487D
:101F5000144CA0470346002B01D010231BE03B6824
:101F6000042B01D904233B600023FB610EE0FB69D5
:101F70009B007A681A44FB699B0007F120010B441F
:101F800053F8143C1360FB690133FB61FA693B6849
:101F90009A42ECD3002318462437BD4690BD00BFBB
:101FA00000080E400100002080B489B000AFF86046
:101FB000B9607A60BB681B017A689A4202D3102329
:101FC000FB6101E00823FB617B68DA00FB69B9680B
:101FD00001FB03F35B081A44FB69B96801FB03F3D7
:101FE000B2FBF3F3BB61BB69DB087B61BB6903F048
:101FF00007033B617B69002B03D07B69B3F5803F0E
:1020000001D301230FE0FB69082B05D1FB685B6856
:1020100043F40022FB685A603B691A047B691A4347
:10202000FB681A62002318462437BD4680BC7047FF
:1020300080B487B000AFF860B9607A60BB685A08B6
:102040007B681A44BB68B2FBF3F37B617B69032BAB
:1020500003D97B69B3F5803F01D3012303E0FB681B
:102060007A691A62002318461C37BD4680BC704747
:1020700080B582B000AF786078680F4B98477B6876
:1020800000225A607B6800225A627B6800229A62B2
:1020900078680A4B98477868094B98477868094BE5
:1020A00098477868084B98477868084B984700BF6E
:1020B0000837BD4680BD00BFB92308007D22080057
:1020C000C52208003D23080071230800572308009B
:1020D00080B584B000AFF860B9607A60F8681A4BD8
:1020E00098471A4B00221A60BB68002B09D0BB68C6
:1020F0001B687A681946F868154B98470346002B09
:1021000001D001231BE0BB685A68BB689B681A4377
:10211000BB681B691A43BB68DB681A430B4B1B681F
:1021200013430A4A1360094B1B68084A1360FB6893
:102130005A68064B1B681A43FB685A60002318460E
:102140001037BD4680BD00BF71200800A8120020D6
:10215000A91F080080B584B000AFF860B9607A604C
:10216000F8683D4B98473D4B00221A60BB68002B36
:102170000DD0BB689B68032B09D8BB681B687A68C5
:102180001946F868364B98470346002B01D00123C7
:102190005DE0BB685A68314B1B6813432F4A1360DC
:1021A000BB68DA682D4B1B68134343F4802343F06C
:1021B0000E032A4A1360BB689B68032B3ED801A21A
:1021C00052F823F0D5210800EF2108000922080069
:1021D00023220800214B1B6843F480731F4A1360BD
:1021E0001E4B1B6823F480331C4A136027E01B4BF3
:1021F0001B6823F48073194A1360184B1B6823F47F
:102200008033164A13601AE0144B1B6843F4807342
:10221000124A1360114B1B6843F480330F4A13605A
:102220000DE00E4B1B6823F480730C4A13600B4BBC
:102230001B6843F48033094A136000E000BFFB6869
:102240005A68064B1B681A43FB685A6000231846FD
:102250001037BD4680BD00BF71200800AC120020C1
:102260003120080080B483B000AF78607B684022E2
:102270001A6000BF0C37BD4680BC704780B483B085
:1022800000AF78607B6888221A6000BF0C37BD46BB
:1022900080BC704780B483B000AF78607B68102248
:1022A0001A6000BF0C37BD4680BC704780B483B055
:1022B00000AF78607B6820221A6000BF0C37BD46F3
:1022C00080BC704780B483B000AF78607B68242204
:1022D0001A6000BF0C37BD4680BC704780B483B025
:1022E00000AF786039607B683A689A6000BF0C374D
:1022F000BD4680BC704780B483B000AF7860396061
:102300007B683A68DA6000BF0C37BD4680BC704716
:1023100080B483B000AF78607B681B6918460C37C7
:10232000BD4680BC704780B483B000AF78607B68E6
:102330005B6918460C37BD4680BC704780B483B0DB
:1023400000AF78607B684FF480721A6000BF0C3772
:10235000BD4680BC704780B483B000AF78607B68B6
:102360004FF400321A6000BF0C37BD4680BC704786
:1023700080B483B000AF78607B684FF400221A60AD
:1023800000BF0C37BD4680BC704780B483B000AF3F
:102390007860396000BF7B685B6903F00203002B43
:1023A000F9D03B68C3F308027B68DA610023184662
:1023B0000C37BD4680BC704780B483B000AF7860F6
:1023C0007B68044AC3F8E42000BF0C37BD4680BCDC
:1023D000704700BF0041535580B582B000AF7860B0
:1023E0007868034B984700BF0837BD4680BD00BFE3
:1023F000794C080080B582B000AF78601420034BA0
:10240000984700BF0837BD4680BD00BFD9230800EC
:1024100080B485B000AFF860B9607A607B68002B4B
:102420000CD0FB68BA680C3253F8223043F001013B
:10243000FB68BA680C3243F822100BE0FB68BA68FC
:102440000C3253F8223023F00101FB68BA680C32D9
:1024500043F8221000BF1437BD4680BC704780B4DB
:1024600085B000AFF860B9607A607B68002B0CD053
:10247000FB68BA680C3253F8223043F00201FB6863
:10248000BA680C3243F822100BE0FB68BA680C32D1
:1024900053F8223023F00201FB68BA680C3243F88B
:1024A000221000BF1437BD4680BC704780B485B091
:1024B00000AFF860B9607A60FB68BA680C3253F814
:1024C000223023F0F001FB68BA680C3243F8221086
:1024D000FB68BA680C3253F822207B6842EA030199
:1024E000FB68BA680C3243F8221000BF1437BD46AF
:1024F00080BC704780B485B000AF786039603A68BE
:102500007B6813445A1E7B68B2FBF3F3FB60FB68E5
:10251000002B02DDFB68FF2B02DD4FF0FF3301E0F3
:10252000FB681BB218461437BD4680BC704780B4A8
:1025300085B000AFF860B9601346FB71FB68BA68FC
:102540000C3253F8223023F47F41FB68BA680C3216
:1025500043F82210FB68BA680C3253F82220FB794A
:102560001B029BB242EA0301FB68BA680C3243F8D3
:10257000221000BF1437BD4680BC704780B485B0C0
:1025800000AFF860B9607A60F968BA6813469B00DA
:1025900013449B000B4470337A681A6000BF1437F1
:1025A000BD4680BC704780B485B000AFF860B960AC
:1025B0007A60F968BA6813469B0013449B000B4489
:1025C00074337A681A6000BF1437BD4680BC704708
:1025D00080B485B000AFF860B9607A60F968BA6815
:1025E00013469B0013449B000B4478337A681A60AF
:1025F00000BF1437BD4680BC704780B485B000AFC3
:10260000F860B9607A60F968BA6813469B001344B1
:102610009B000B4480337A681A6000BF1437BD46B4
:1026200080BC704780B584B000AF7860396078684E
:10263000264B9847F8607868254B98470246FB6818
:102640001340FB60FB68002B3CD00023BB6034E0F0
:10265000204ABB681B0113441B683A689A4226D182
:102660001C4ABB681B01134404331A68FB681340FF
:10267000002B1CD0174ABB681B0113440C331B688A
:102680001449BA6812010A4410681249BA68120162
:102690000A4404321268114698470E4ABB681B016F
:1026A000134404331B68DB43FA681340FB60BB68C8
:1026B0000133BB60BB68062B03D8FB68002BC7D176
:1026C00000E000BF00BF1037BD4680BDAB51080021
:1026D000C1510800B012002080B500AF0A210248A5
:1026E000024B984700BF80BD000C0E402526080015
:1026F00080B500AF0B210248024B984700BF80BD58
:10270000000E0E402526080080B483B000AF0346BB
:10271000FB71FB7903F01F03012202FA03F1054A62
:1027200097F907305B0942F8231000BF0C37BD460C
:1027300080BC704700E100E080B483B000AF034686
:102740003960FB7197F90730002B0BDA3B68DAB27E
:102750000C49FB7903F00F03043B1201D2B20B4486
:102760001A7609E03B68DAB2074997F90730120197
:10277000D2B20B4483F8002300BF0C37BD4680BCA7
:10278000704700BF00ED00E000E100E080B483B0DE
:1027900000AFEFF310833B603B68002B0CBF0123BD
:1027A0000023DBB27B6072B600BFBFF35F8F00BF58
:1027B000044B00221A707B6818460C37BD4680BC5B
:1027C000704700BFAA03002080B483B000AF7860D8
:1027D0007B68002B14BF01230023DBB218460C37A3
:1027E000BD4680BC7047000080B582B000AF786005
:1027F0007868084B98470346002B07D0064B012208
:102800001A70BFF35F8F00BF62B600BF00BF08370A
:10281000BD4680BDC9270800AA03002080B584B04A
:1028200000AF0346FB71084B9847F860FB79074AF5
:10283000D25C0132D1B2054AD154F868044B9847B2
:1028400000BF1037BD4680BD8D270800341800201A
:10285000E927080080B584B000AF0346FB71084B40
:102860009847F860FB79074AD25C013AD1B2054A31
:10287000D154F868044B984700BF1037BD4680BD5F
:102880008D27080034180020E927080080B582B0A1
:1028900000AF0346FB71FB7983F00103DBB2002B31
:1028A00006D00D4B1B78002B02D002200B4B984713
:1028B000FB79002B09D0084B1B7883F00103DBB2B6
:1028C000002B02D00220064B9847034AFB79137075
:1028D00000BF0837BD4680BD2013002055280800E2
:1028E0001D28080080B500AF1D205F4B98475F4B47
:1028F0009847034683F00103DBB2002B0ED05C4BFC
:102900005B6903F00203002B08D172B600BFBFF36E
:102910005F8F00BF574B00221A70A4E0544B5B69D5
:1029200003F00803002B0DD0514B08229A61504B45
:102930005B6903F00103002B01D14F4B98474F4BCC
:1029400098478FE04A4B5B6903F00403002B05D0E6
:10295000474B04229A61484B984783E0484B98477D
:102960000346002B79D1474B98470346002B76D17D
:102970003F4B5B6903F01003002B1DD03C4B102232
:102980009A61414B9847414B9847414B9847414B7F
:102990009847374B1B69364A43F008031361344BA1
:1029A0001B69334A43F004031361314B1B69304AFE
:1029B00043F00203136155E02D4B1B6903F0020342
:1029C000002B20D02A4B5B6903F00203002B1AD0A6
:1029D000274B20229A61264B1B69254A23F00203CC
:1029E0001361234B1B69224A43F020031361204BE0
:1029F00002229A611D20284B9847284B98470020B7
:102A0000274B98472EE01A4B5B6903F02003002BFD
:102A100027D00120224B9847154B02229A61144B74
:102A200020229A61124B1B69114A23F02003136183
:102A30000F4B1B690E4A43F0020313610C4B1B69D9
:102A40000B4A43F008031361094B1B69084A43F022
:102A500004031361134B984704E000BF02E000BF7A
:102A600000E000BF00BF80BD794C0800C5660800CB
:102A700000400A40AA03002081570800A50C080066
:102A8000793D080095410800B93E08002D5708001F
:102A9000D936080059370800C54C0800790C0800E1
:102AA0008D280800950C080080B582B000AF194B46
:102AB00098471D20184B9847184B98477860184B3B
:102AC0001B68174A43F48073136005211D20154BC2
:102AD00098471D20144B9847144B9847104BD3F838
:102AE000E0300F4A23F00303C2F8E0304FF48020B7
:102AF0000F4B98470F4B00221A7003200E4B98473C
:102B00000E4B984778680E4B984700BF0837BD4674
:102B100080BD00BF5D480800794C08008D27080083
:102B200000400A4039270800092708005D3E0800D8
:102B3000354D0800201300201D280800452B0800F3
:102B4000E927080080B582B000AF264B984778602F
:102B50000120254B98471D20244B9847244B1B6888
:102B6000234A43F400631360214B1B68204A23F47B
:102B7000007313601E4B1B691D4A43F01003136161
:102B80001B4B1B691A4A43F002031361184B1B6964
:102B9000174A43F020031361154B1B69144A43F095
:102BA00008031361124B1B69114A43F004031361BC
:102BB0000F4B08229A610E4B04229A610C4B102293
:102BC0009A610B4B02229A61094B20229A611D20C7
:102BD000084B98477868084B984700BF0837BD46B0
:102BE00080BD00BF8D2708008D280800794C0800A3
:102BF00000400A40C54C0800E927080080B500AF36
:102C00001D200B4B98470B4B1B680A4A43F400737B
:102C10001360084B1B68074A23F4006313601D20F0
:102C2000054B98470020054B984700BF80BD00BF6B
:102C3000794C080000400A40C54C08008D28080067
:102C400080B400AF064B5B6903F00103002B14BF97
:102C500001230023DBB21846BD4680BC704700BF8D
:102C600000400A4080B483B000AF0346FB710D4BB7
:102C70001B680C4A23F0800313600A4B1B6823F087
:102C80007F02FB7903F07F03064913430B60054B7A
:102C90001B68044A43F08003136000BF0C37BD4635
:102CA00080BC704700400A4080B400AF044B1B68F2
:102CB000DBB203F07F03DBB21846BD4680BC704731
:102CC00000400A4080B400AF054B5B68DB089BB254
:102CD000C3F30A039BB21846BD4680BC704700BFD1
:102CE00000400A4080B483B000AF78600B467B8020
:102CF000054A7B689360044A7B88938100BF0C3748
:102D0000BD4680BC704700BF1018002090B589B048
:102D100002AF0346FB710B46BB711346BB80002319
:102D2000FB7400237B74FB7903F08003002B14BF3A
:102D3000012300233B74FB7903F00F03FB71FB7944
:102D4000022B01D90023B4E1B34AFB795B011344A0
:102D500003F586731B6803F00103002B01D00023E9
:102D6000A7E1BB7903F00303032B1AD0032B1EDC6E
:102D7000012B02D0022B17D019E0FB79002B07D0D2
:102D8000FB79032B04D0FB79042B01D0012300E055
:102D900000237B747B7C03F001037B7401237B7530
:102DA00007E001237B7504E002237B7501E000232B
:102DB0007FE17B7D032B0CD0032B0DDC012B02D09C
:102DC000022B03D008E001233B7507E002233B758B
:102DD00004E003233B7501E000236AE17B7C002BC8
:102DE00017D0BB8803F4C053B3F5006F03D0B3F51D
:102DF000805F03D005E00223FB7405E00323FB742E
:102E000002E00123FB7400BFBB8823F4C053BB80E6
:102E100006E0BB8803F4C053002B01D0002348E137
:102E20007D4AFB7908335B0113441B6823F47F73ED
:102E300023F00303BA79120102F03002397C002931
:102E400001D0082100E000211143BA88B2F5806F5B
:102E500007D2BA88082A38BF082292B25200013A33
:102E600001E040F2FF72B2FA82F2C2F11C02114399
:102E70003A7D9201D2B211437A7C002A04D0FA7CC6
:102E8000120202F4407200E000220A43C2F3090277
:102E90006148F9791A4301F108035B0103441A60A0
:102EA0005D4AFB7908335B0113441B68002B01DB8F
:102EB0000023FEE0584AFB7908335B0113440433D6
:102EC00001221A600023FB820223BB7439E0524ABC
:102ED000BB7C5B01134403F586731B6803F001039D
:102EE000002B2BD04C4ABB7C08335B0113441B687E
:102EF0009B09DBB203F003033B753A7DBB7C5B00AF
:102F000002FA03F31AB2B7F9163013431BB2FB826D
:102F1000414ABB7C5B01134403F5847301221A60B0
:102F20003D4ABB7C08335B0113441A683A49BB7CB9
:102F300022F0C00208335B010B441A60BB7C013BEA
:102F4000BB74BA7CFB799A42C1D2FB79BB74ABE00B
:102F5000BB7C5A1E13465B001344DB002F4A13440C
:102F6000FB60FB681B7DC3F30003DBB2002B14BFC7
:102F700001230023FB72FA8ABB7C5B0042FA03F355
:102F8000DBB203F003033B753B7D002B00F0888030
:102F9000FA68137D6FF3000313751F4ABB7C083377
:102FA0005B0113441B6823F0C0013B7D9B01DAB237
:102FB0001948BB7C0A4308335B0103441A60164A74
:102FC000BB7C08335B011344043301221A60124AAC
:102FD000BB7C08335B0113441B68002B20DBFB68C0
:102FE0001B68002B01D1002363E00B4ABB7C083334
:102FF0005B0113441B6803F00803002B03D0BB7C68
:1030000063F07F03BB74FB681B68FA68D168BA7C05
:103010000120984700234CE000400A40281300207C
:10302000264ABB7C08335B01134404331A682349E6
:10303000BB7C42F0020208335B010B4404331A608C
:10304000FB7A002B2DD0FB68DA68FB681B69D21A6B
:10305000FB68DA60FB681B7DC3F34003DBB2002B27
:1030600014BF01230023D9B2FB685A68FB68DB68F0
:10307000D418FB689A68FB68DB68D21AFB681B6887
:10308000B87C0093134622460D4CA0470346FB72C2
:10309000FB7A83F00103DBB2002B02D0002308E0AF
:1030A00000BFBB7C0133BB74BB7C022B7FF650AFEF
:1030B000012318461C37BD4690BD00BF00400A40A2
:1030C000F133080080B584B000AF0346FB71FB7993
:1030D00003F00F03FB73FB7B022B28D8164AFB7B04
:1030E0005B01134403F5847301221A60124AFB7BCF
:1030F00008335B0113441A680F49FB7B22F0C002BE
:1031000008335B010B441A60FB7918460B4B984758
:10311000FB7B5A1E0A4913465B001344DB000B4439
:1031200003F1100213796FF38203137100E000BF03
:103130001037BD4680BD00BF00400A40013F080077
:103140002813002080B485B000AF0346FB71FB79E3
:1031500003F00F03FB73FB7B5A1E13465B00134403
:10316000DB00104A1344BB600F4AFB7B5B01134436
:1031700003F58E731B6803F02003002B06D1BB6898
:103180001B7D03F00403DBB2002B01D0012300E020
:10319000002303F00103DBB218461437BD4680BCA0
:1031A000704700BF2813002000400A4080B485B05B
:1031B00000AF0346FB71FB7903F00F03FB73FB7B4E
:1031C000022B01D9002371E0FB7B5A1E13465B00E2
:1031D0001344DB00384A1344BB60384AFB7B5B0175
:1031E000134403F58E731B6803F02003002B06D1F4
:1031F000BB681B7D03F00403DBB2002B01D001236D
:1032000054E0BB681B7D03F00103DBB2002B01D04F
:1032100000234BE097F90730002B25DA274AFB7B88
:103220005B01134403F58E731B689B0C03F00303CF
:10323000002B19D0BA68137D43F0040313751F4A9D
:10324000FB7B08335B01134404334FF480221A6084
:103250001A4B1A69FB7B4FF4807101FA03F317498B
:1032600013430B61012321E0144AFB7B5B011344F0
:1032700003F584731A681149FB7B22F002025B019B
:103280000B4403F584731A600C4AFB7B5B01134407
:1032900003F58C734FF400521A60084AFB7B5B0104
:1032A000134403F58A7320221A6001231846143749
:1032B000BD4680BC704700BF2813002000400A4074
:1032C00080B584B000AF0346FB710023FB73FB792C
:1032D00003F00F03FB71FB79022B01D900237EE081
:1032E000FB795A1E13465B001344DB003E4A13442D
:1032F000BB60BB681B7D03F00403DBB2002B1AD05C
:10330000BA68137D6FF382031375384AFB795B014A
:10331000134403F584734FF480221A60334B1A6907
:10332000FB794FF4807101FA03F3DB432F4913401B
:103330000B610123FB732D4AFB795B01134403F5F9
:103340008E731B6803F02003002B35D0274AFB79CE
:103350005B01134403F58E731B6803F40053002BC9
:1033600010D0224AFB795B01134403F58C734FF4B0
:1033700000521A601D4AFB795B01134403F58C73FC
:1033800040221A60194AFB795B01134403F58C73E0
:1033900020221A60154AFB7908335B011344043379
:1033A0001A681249FB7942F0020208335B010B44B0
:1033B00004331A600123FB73FB7B002B0ED0BB6828
:1033C0001B7D03F00103DBB2002B07D0BA68137D2D
:1033D0006FF300031375BB681B68984701231846F9
:1033E0001037BD4680BD00BF2813002000400A40B2
:1033F00080B586B000AFBA607B600346FB730B46B6
:10340000BB73FB7B03F00F03FB73FB7B022B01D928
:10341000002363E0FB7B5A1E13465B001344DB0072
:10342000304A13447B61304AFB7B5B01134403F554
:1034300086731B6803F00103002B11D02A4AFB7B23
:103440005B01134403F58E731B6803F02003002B0C
:1034500006D17B691B7D03F00403DBB2002B01D096
:1034600000233BE0214B984738617B691B7D03F0CB
:103470000103DBB2002B04D038691D4B98470023B1
:103480002CE07A69137D43F0010313753869184BFA
:1034900098477B69BA685A607B697A689A607B69E9
:1034A0000022DA607B6900221A617B693A6A1A603D
:1034B000BB7B002B02D17B68002B01D1012300E0F4
:1034C000002303F00103D9B27A69137D61F341034C
:1034D0001375FB7B1846074B98470123184618378E
:1034E000BD4680BD2813002000400A408D270800FB
:1034F000E9270800AD3F080080B584B000AF03465F
:10350000FB71FB7903F00F03FB73FB7B1A01194B73
:10351000134400229A6097F90730002B21DA14E057
:10352000154AFB7B5B01134403F58A734FF4007269
:103530001A6000BF104AFB7B5B01134403F58E73D6
:103540001B6803F40073002BF4D10B4AFB7B5B0177
:10355000134403F58E731B689B0C03F00303002BCD
:10356000DED1FB791846054B984700BF1037BD46A2
:1035700080BD00BF00430A4000400A40013F0800F0
:1035800080B400AF0A4BD3F8E03023F00303084ABD
:1035900043F00203C2F8E030054BD3F8E030044AB0
:1035A00043F00403C2F8E03000BFBD4680BC704762
:1035B00000400A4080B400AF0A4BD3F8E03023F05B
:1035C0000303084A43F00203C2F8E030054BD3F886
:1035D000E030044A43F00803C2F8E03000BFBD46C3
:1035E00080BC704700400A4080B400AF064BD3F85F
:1035F000E03023F00303044A43F00203C2F8E03052
:1036000000BFBD4680BC704700400A40B0B493B0D4
:1036100000AF2E4B3C1D1D460FCD0FC40FCD0FC468
:103620000FCD0FC495E80300206004342170284BAF
:103630000122C3F80821264BD3F8003123F47F730D
:1036400023F00303224A43F06B03C2F80031204BFE
:103650000122C3F804211E4BD3F8E03023F003030A
:103660001B4A43F00203C2F8E030194BD3F8E030B4
:10367000174A43F01003C2F8E030164B3B643B1D81
:10368000FB63002387F847300CE0FA6B531CFB63A5
:103690003B6C591C396412781A7097F84730013323
:1036A00087F8473097F84730342BEED9084B4FF462
:1036B0008062C3F81821064B4FF40062C3F814214E
:1036C00000BF4C37BD46B0BC704700BF90D9080062
:1036D00000400A400000182080B582B000AF1B4BAC
:1036E0001B681A4A23F07F031360184B1B68174AA4
:1036F00043F080031360154BD3F8003123F47F733C
:1037000023F00303114A43F04303C2F800310F4B87
:103710000122C3F804210E4B984778600B4B4FF4FD
:103720008052C3F80421094B4FF40072C3F80421FE
:10373000064B1B69054A43F4807313617868054B97
:10374000984700BF0837BD4680BD00BF00400A4013
:103750008D270800E927080080B582B000AF104B24
:10376000984778600F4B4FF48062C3F8082178685F
:103770000D4B98470B4B4FF40072C3F818210B4BBD
:1037800000221A61094B00225A61084B00229A81DB
:10379000074B00221A7000BF0837BD4680BD00BF2E
:1037A0008D27080000400A40E92708001018002073
:1037B0002113002080B584B000AF404B1B78002B54
:1037C00003D03F4B98473F4B98473F4BD3F81C31B2
:1037D0001B0DC3F30A03082B07D03C4B98473A4B09
:1037E0004FF48052C3F8182164E0394BBB600023CA
:1037F000FB730AE0BB685A1CBA60FA7B35490A447D
:103800001B781370FB7B0133FB73FB7B072BF1D918
:10381000304B5A882F4B5A802E4B9A882D4B9A80CA
:103820002C4BDA882B4BDA802B4B9847034683F0DE
:103830000103DBB2002B07D0244B9847224B4FF4F7
:103840008052C3F8182135E01F4B4FF48052C3F863
:103850001821204B1B785BB2002B0BDA1F4B002288
:103860001A801F4B00221A80144B02221A701D4B23
:1038700098471FE0174BDB88002B02D11A4B984763
:1038800018E0164B00221A80154B00221A800B4BB1
:1038900001221A700C4B4FF48042C3F81821134BCD
:1038A00098477860084B4FF48042C3F80421786849
:1038B0000F4B98471037BD4680BD00BF2113002035
:1038C0005D3D08005937080000400A40913C08005F
:1038D0000000182010180020E561080022130020C5
:1038E00024130020F5380800B53C08008D27080097
:1038F000E927080080B584B000AF4C4B984738608A
:103900004B4B4FF48062C3F808213868494B984705
:10391000494B1B78032B04D1484B9847484B984799
:1039200081E0484B9A89484B1B88D31AFB81FB895D
:10393000002B27D1454B1A88434B1B8813449AB25E
:10394000424B1A803F4BDA88404B1B889A4203D087
:103950003F4B1B78002B02D03E4B984763E0394B1E
:103960005B69002B0ED0374B5B699847034683F0A9
:103970000103DBB2002B05D1334B00221A80314BFF
:103980009B89FB81FB893F2B05D94023FB81304B71
:1039900000221A7002E02E4B01221A702E4BBB60DF
:1039A000284B9B68284A128813447B601F4B98471A
:1039B00038601F4BD3F81C3103F40073002B06D082
:1039C00038681C4B98471C4B04221A702BE00023CC
:1039D0007B730AE07A68531C7B60BB68591CB96032
:1039E00012781A707B7B01337B737B7B9BB2FA89E5
:1039F0009A42EFD8144B1A88FB8913449AB2124B9F
:103A00001A800B4B4FF48062C3F81821084B4FF417
:103A10000062C3F81421064B4FF48062C3F80421FE
:103A20003868044B98471037BD4680BD8D27080085
:103A300000400A40E9270800211300205D3D0800EE
:103A400059370800101800202413002022130020EA
:103A500058130020193D08000000182080B584B0DC
:103A600000AF614B1B78012B0FD05F4B1B78022BF3
:103A700003D05D4B1B78042B02D15C4B984701E0CF
:103A80005B4B98475B4B9847ABE05B4BD3F81C31E3
:103A90001B0D9BB2C3F30A03BB81584B9B891A468B
:103AA000574B1B881946BB890B449A4205DA534B86
:103AB0009A89534B1B88D31ABB81524BBB604F4B27
:103AC0009B684F4A128813447B600023FB730AE013
:103AD000BA68531CBB607B68591C796012781A70F5
:103AE000FB7B0133FB73FB7B9BB2BA899A42EFD815
:103AF000434B1A88BB8913449AB2414B1A80BB8945
:103B0000402B0AD13D4BDB881A463F4B1B88194698
:103B10003B4B1B880B449A4220DC394B1A88374BAD
:103B20009A81364B5B69002B10D0344B5B69984708
:103B3000034683F00103DBB2002B07D02C4B9847E0
:103B40002D4B4FF40072C3F818214AE02A4B4FF472
:103B50000072C3F818212D4B984742E0274B9A89F1
:103B6000274B1B889A4227D1244B5B69002B07D136
:103B70001F4B9847204B4FF40072C3F8182130E0D8
:103B80001E4B5B699847034683F00103DBB2002BB1
:103B900007D0174B9847184B4FF40072C3F8182101
:103BA0001FE0194B1A88164B1B8813449AB2164B08
:103BB0001A80134B00221A800F4B4FF40072C3F887
:103BC00018210D4B4FF48042C3F81821104B984731
:103BD0003860094B4FF48042C3F8042138680D4B1C
:103BE00098471037BD4680BD211300205D3D080079
:103BF000913C08005937080000400A401018002086
:103C0000241300200000182022130020B53C0800D7
:103C10008D270800E927080080B500AF0C4BD3F8CA
:103C20001C3103F40073002B0FD10A4B1B78012BBE
:103C300002D1094B984709E0064B1B78042B05D1AC
:103C4000034B2022C3F8142100E000BF80BD00BF59
:103C500000400A4021130020B53C080080B400AFAA
:103C6000094BD3F81C3103F48063002B08D1074BB8
:103C70001B78032B05D1044B2022C3F8142100E04C
:103C800000BFBD4680BC704700400A4021130020A1
:103C900080B400AF054B05221A70054B2022C3F8F3
:103CA000142100BFBD4680BC704700BF2113002017
:103CB00000400A4080B582B000AF134B03221A7057
:103CC000124B98477860124B4FF48062C3F818216A
:103CD0000F4B4FF40062C3F814210D4B4FF4806278
:103CE000C3F804210A4B4FF40042C3F81821084BD3
:103CF0004FF40042C3F804217868064B984700BF90
:103D00000837BD4680BD00BF211300208D27080065
:103D100000400A40E927080080B582B000AF0B4B95
:103D200004221A700A4B984778600A4B4FF480427D
:103D3000C3F81821074B4FF48042C3F80421786878
:103D4000054B984700BF0837BD4680BD21130020B2
:103D50008D27080000400A40E927080080B500AF21
:103D6000044B1B69002B02D0024B1B69984700BF14
:103D700080BD00BF1018002080B582B000AF314B6D
:103D8000D3F81C317B602F4B5B6903F48073002BED
:103D900001D1002352E02B4B4FF48042C3F808219D
:103DA000284B4FF40042C3F808217B6803F480538A
:103DB000002B03D0244B984701233FE07B6803F49A
:103DC0008063002B0AD01F4BD3F80C3103F48063BF
:103DD000002B03D01D4B984701232FE07B6803F491
:103DE0000073002B03D01A4B9847012326E07B6811
:103DF00003F40053002B04D0124B4FF40052C3F8CD
:103E000018217B6803F40043002B08D00D4B4FF4BE
:103E10000042C3F818210F4B984701230EE07B683E
:103E200003F48043002B08D0064B4FF48042C3F8C4
:103E30001821094B9847012300E000231846083752
:103E4000BD4680BD00400A40B5370800F53808007F
:103E50005D3A08005D3C0800193C080080B483B05E
:103E600000AF0023FB711CE0FA79124913465B0096
:103E70001344DB000B4403F1100213796FF30003CA
:103E80001371FA790B4913465B001344DB000B44B2
:103E900003F1100213796FF382031371FB7901337D
:103EA000FB71FB79012BDFD900BF00BF0C37BD468A
:103EB00080BC70472813002080B582B000AF00237B
:103EC000FB7110E0FA7913465B001344DB000A4AE9
:103ED0009818FB790133DBB21A460121074B98474A
:103EE000FB790133FB71FB79012BEBD900BF00BFDC
:103EF0000837BD4680BD00BF281300203D3F0800A5
:103F000080B582B000AF0346FB71FB7903F00F036D
:103F1000FB71FB795A1E13465B001344DB00054A14
:103F20001344FA7901211846034B984700BF08371C
:103F3000BD4680BD281300203D3F080080B582B0FB
:103F400000AF78600B46FB701346BB707B681B7D2F
:103F500003F00103DBB2002B1FD07A68137D6FF3EF
:103F6000000313757B681B68002B18D00E4ABB78C2
:103F700008335B0113441B6803F00803002B03D0D4
:103F8000BB7863F07F03BB707B681B68FA781046D0
:103F90007A689168BA78984702E000BF00E000BFF5
:103FA0000837BD4680BD00BF00400A4080B586B0DE
:103FB00000AF0346FB7100237B61FB795A1E134659
:103FC0005B001344DB006D4A1344FB60FB681B7D00
:103FD00003F00103DBB2002B00F0CC80FB68DA6851
:103FE000FB689B689A4200F09980FB689A68FB68BE
:103FF000DB68D31A3B613B69B3F5803F05D94FF4C9
:1040000080333B6100237B6102E03B691B047B61E1
:104010005B4AFB7908335B0113441B6803F0080318
:10402000002B1DD0564AFB7908335B0113441B68F3
:1040300003F00703082202FA03F31A463B69B3FBB5
:10404000F2F102FB01F29B1A002B27D07B6943F0AF
:1040500008037B61FA68137D6FF3410313751DE05C
:10406000474AFB7908335B0113441B681B0903F0C3
:104070000303012B0ED1424AFB7908335B01134441
:104080001B6803F00703082202FA03F31A463B6990
:10409000934203D87B6943F014037B61FB685A6841
:1040A000FB68DB68D118FB791A01364B13440A46CA
:1040B0005A607B6943F021037B61334B9847B860BA
:1040C000FB791A012F4B1344DB6803F01003002B1C
:1040D0001DD1FB791A012B4B13447A699A60FB6856
:1040E000DA683B691A44FB68DA60FB683A691A616E
:1040F000234B1A69FB79013B4FF0007101FA03F37E
:104100001F4913430B61B868204B984733E0B868E8
:104110001E4B9847FB68DA68FB689A60184AFB797F
:1041200008335B0113441B6803F00803002B1AD00B
:10413000FB681B7D03F00203DBB2002B13D0104A97
:10414000FB7908335B01134404334FF400621A60B7
:104150000B4B1A69FB794FF4807101FA03F308499C
:1041600013430B6107E0FB791A460021F868084BFE
:10417000984700E000BF1837BD4680BD28130020D7
:1041800000400A4000430A408D270800E927080044
:104190003D3F080080B584B000AF0123FB73E0E031
:1041A000FB7B5A1E13465B001344DB00714A134429
:1041B000BB60714B1A69FB7B013B4FF0007101FA48
:1041C00003F31340002B3CD06B4B5A69FB7B013B44
:1041D0004FF0007101FA03F31340002B31D0FB7B49
:1041E0001A01664B1344DB6803F00103002B01D076
:1041F0000123BBE0604B1A69FB7B013B4FF0007170
:1042000001FA03F3DB435C4913400B61FB7B1A01AA
:104210005A4B1344DB681B0C9BB27B607B68002B02
:1042200009D0BB68DA687B68D21ABB68DA60BB6801
:10423000DA68BB689A60FB7B1846514B98470123AC
:1042400094E04D4B1A69FB7B4FF4807101FA03F344
:104250001340002B00F08280474AFB7B5B01134434
:1042600003F586731B6803F40063002B24D0424AD5
:10427000FB7B5B01134403F58E731B6803F400633F
:10428000002B19D13C4AFB7B5B01134403F584737B
:104290004FF400621A60384AFB7B5B01134403F55C
:1042A0008A734FF400621A60FB7B1A460021B868DB
:1042B000344B9847012359E02F4AFB7B5B011344A1
:1042C00003F586731B6803F48023002B46D02A4A2B
:1042D000FB7B5B01134403F58E731B689B0C03F09F
:1042E0000303002B3AD1244AFB7B5B01134403F503
:1042F00084734FF480221A601F4B1A69FB7B4FF4C2
:10430000807101FA03F3DB431B4913400B61BA6868
:10431000137D6FF382031375174AFB7B5B01134414
:1043200003F584731A681449FB7B22F002025B01D7
:104330000B4403F584731A600F4AFB7B5B01134443
:1043400003F58A7320221A600B4AFB7B5B0113443E
:1043500003F58C7340221A60012307E0FB7B0133D5
:10436000FB73FB7B022B7FF61BAF00231846103735
:10437000BD4680BD2813002000400A4000430A408B
:10438000AD3F08003D3F080080B586B000AFF86043
:10439000B9607A6000237B61FB68012B1ED0FB684B
:1043A000022B1BD0FB68032B18D04FF0FF3319E012
:1043B0000E4B1A680E4B1868BB68591CB9601B7805
:1043C000194690470346002B02DA4FF0FF3309E00D
:1043D0007B6901337B617B68013B7B607B68002BE1
:1043E000E6D17B6918461837BD4680BD28180020E5
:1043F0002C18002080B584B000AF78600023FB60EB
:1044000017E0104AFB6852F833307A689A420DD1AF
:104410000C4AFB68DB0013445B68012B03D178680E
:10442000094B984702E07868084B9847FB680133CE
:10443000FB60FB68012BE4D900BF00BF1037BD460D
:1044400080BD00BFC8D908003952080009520800D1
:1044500080B584B000AF78600023FB6017E0104A9D
:10446000FB6852F833307A689A420DD10C4AFB68E7
:10447000DB0013445B68012B03D17868094B984734
:1044800002E07868084B9847FB680133FB60FB68E3
:10449000012BE4D900BF00BF1037BD4680BD00BF6F
:1044A000C8D90800095208003952080080B582B006
:1044B00000AF1E4B7B601E4B3B607A683B689A42A4
:1044C0000CD007E07A68131D7B603B68191D3960CA
:1044D00012681A603B68174A9342F3D3164B3B604D
:1044E00004E03B681A1D3A6000221A603B68134AD8
:1044F0009342F6D3124B7B607B68124A23F06043F1
:1045000023F07F0393607B68B3F1005F09D37B687E
:104510000D4A934205D20B4B9B680A4A43F0005365
:1045200093600A4B98470A4B9847FEE73CDE080029
:1045300000000020E80D0020E80D00206418002095
:104540000000080000ED00E000400020DD6F0800E2
:104550007D0A080080B582B000AF78607B68072BC9
:104560002ED801A252F823F0BF4508008945080063
:104570009145080099450800A1450800A945080093
:10458000B1450800B945080000200F4B984717E0D7
:1045900001200D4B984713E000200C4B98470FE08B
:1045A00010200A4B98470BE02020084B984707E063
:1045B0003E20074B984703E0064B984700E000BFBA
:1045C00000BF0837BD4680BD294A0800954A08004B
:1045D000094B0800594B080080B582B000AF7860E5
:1045E0007B68072B2FD801A252F823F00D46080054
:1045F000114608001146080023460800234608001B
:1046000023460800354608003546080001231BE014
:104610000F4B98470346002B14BF01230023DBB246
:1046200012E00C4B98470346002B14BF01230023D4
:10463000DBB209E0084B98470346002B14BF012367
:104640000023DBB200E0002318460837BD4680BDDA
:10465000614A0800F14A0800A54B080080B483B005
:1046600000AF78607B68072B23D801A252F823F0B3
:1046700091460800974608009B4608009F460800A0
:10468000A3460800A7460800AB460800AF4608004E
:104690004FF4FA430EE000230CE000230AE0084B3D
:1046A00008E0084B06E0084B04E0074B02E0064B2D
:1046B00000E0002318460C37BD4680BC704700BFA1
:1046C00000093D0000127A00001BB70080B582B0DF
:1046D00000AF0346FB7100BFFB791846064B9847B5
:1046E000034683F00103DBB2002BF5D100BF00BF0E
:1046F0000837BD4680BD00BFD945080080B586B0EB
:1047000000AFF8607A603B600B46FB727B68002B61
:1047100007D13B68002B04D1FB684FF470021A608C
:104720001AE0FB7A18460E4B984702467B68B2FBAC
:10473000F3F37B617B693A6802FB03F37B613B68BF
:10474000013B1A04074B13407A68D2B2134343F477
:104750007C52FB681A6000BF00BF1837BD4680BDA1
:104760005D4608000000FF0780B582B000AF7860AA
:1047700039603B68002B08D1094B98477B681B6860
:10478000084A43F00053936205E07B681B68054AC2
:1047900043F48033D36100BF0837BD4680BD00BFFE
:1047A000154C080000040E4080B582B000AF786060
:1047B0007B68002B03D1054B9847034602E0044B6E
:1047C0009847034618460837BD4680BD2D4C080063
:1047D000614C080080B582B000AF0346FB71FB79E5
:1047E000033B042B08D8FB791846064B9847FB7906
:1047F0001846054B984700E000BF00BF0837BD468C
:1048000080BD00BF55450800CD46080080B582B088
:1048100000AF786000BF7868044B98470346002BD0
:10482000F9D0002318460837BD4680BDA9470800C7
:1048300080B500AF0620034B984703461B0118467E
:1048400080BD00BF5D46080080B500AF024B9847B1
:1048500003465B08184680BD3148080090B583B018
:1048600000AF0620094B9847381D0023002206217F
:10487000074CA0473B1D01211846064B98470120D5
:10488000054B984700BF0C37BD4690BDD547080083
:10489000FD460800694708000D48080090B583B040
:1048A00000AF1648164B98470620164B98474FF016
:1048B0008070154B984700BF144B98470346002B58
:1048C000FAD0381D102301220621114CA0473B1DB0
:1048D000002118460F4B984700200F4B9847102097
:1048E0000E4B98470E4B98470E4B98470346184679
:1048F000034B984700BF0C37BD4690BD00D8B805A4
:10490000BD010020D5470800D54B0800BD4B08006D
:10491000FD460800694708000D480800A94908003D
:10492000A96A08004948080080B485B000AF7860E3
:104930001C4B1B6B23F003031A4A43F00103136360
:104940004FF40063FB6007E0FB68002B01D10123FB
:1049500023E0FB68013BFB60124B9B6E03F00803F6
:10496000002BF1D00F4B1B6B23F070020D497B68BD
:1049700013430B634FF40063FB6007E0FB68002BFD
:1049800001D1012309E0FB68013BFB60054B9B6EF5
:1049900003F00803002BF1D0002318461437BD465E
:1049A00080BC704700040E4080B485B000AF7860D2
:1049B0001C4B1B6B23F070021A497B6813430B637B
:1049C0004FF40063FB6007E0FB68002B01D101237B
:1049D00023E0FB68013BFB60124B9B6E03F0080376
:1049E000002BF1D00F4B1B6B23F003030D4A43F058
:1049F000020313634FF40063FB6007E0FB68002BC6
:104A000001D1012309E0FB68013BFB60054B9B6E74
:104A100003F00803002BF1D0002318461437BD46DD
:104A200080BC704700040E4080B483B000AF786053
:104A30007B68012B07D1084B9B68074A43F025434D
:104A400043F480139360044B044A1A6000BF0C3790
:104A5000BD4680BC704700BF10120E40080000A584
:104A600080B400AF094B5B6903F08003002B07D0D3
:104A7000074B9B6E03F08003002B01D0012300E065
:104A800000231846BD4680BC704700BF10120E4080
:104A900000040E4080B483B000AF7860134B1B6AF3
:104AA000124A43F45C1343F00803136200BF0F4B38
:104AB0009B6E03F40033002BF9D00C4B1B6A23F4DC
:104AC0005C1323F070037A681343084A43F45C13C1
:104AD000136200BF054B9B6E03F40033002BF9D02B
:104AE00000BF00BF0C37BD4680BC704700040E40BD
:104AF00080B400AF034B9B6E03F400331846BD46F1
:104B000080BC704700040E4080B485B000AF786070
:104B1000104B1B6AFB60FB6823F00303FB607B68A0
:104B20001B029AB2FB68134343F45C1343F0010386
:104B3000FB60084AFB68136200BF064B9B6E03F0E4
:104B40000103002BF9D000BF00BF1437BD4680BC65
:104B5000704700BF00040E4080B483B000AF0A4B22
:104B60001B6A7B607B6823F003037B607B6843F4F4
:104B70005C1343F002037B60034A7B68136200BF4F
:104B80000C37BD4680BC704700040E4080B400AFB7
:104B9000034B1B6A03F002031846BD4680BC7047F6
:104BA00000040E4080B400AF034B9B6E03F0010382
:104BB0001846BD4680BC704700040E4080B400AF6C
:104BC000034B9B6E03F480331846BD4680BC704790
:104BD00000040E4080B485B000AF78600C4B1B6AB7
:104BE000FB607B68002B04D0FB6843F08073FB60A4
:104BF00003E0FB6823F08073FB60054AFB6843F425
:104C00005C13136200BF1437BD4680BC704700BF01
:104C100000040E4080B400AF034B4FF000529A6284
:104C200000BFBD4680BC704700040E4080B400AF9A
:104C3000034B9B6E03F002031846BD4680BC7047D1
:104C400000040E4080B400AF044BDB69034A23F438
:104C50008033D36100BFBD4680BC704700040E4066
:104C600080B400AF034B9B6E03F040031846BD4673
:104C700080BC704700040E4080B483B000AF786001
:104C80007B681D2B01D9012315E07B681F2B11D8F0
:104C90000B4B9A6901217B6801FA03F31A40012149
:104CA0007B6801FA03F39A4204D001227B689A40A0
:104CB000034B1A61002318460C37BD4680BC704771
:104CC00000040E4080B483B000AF78607B681D2B79
:104CD00001D9012315E07B681F2B11D80B4B9A6972
:104CE00001217B6801FA03F31A4001217B6801FA74
:104CF00003F39A4204D101227B689A40034B5A6124
:104D0000002318460C37BD4680BC704700040E4097
:104D100080B483B000AF7860054A4FF480717B683F
:104D200001FA03F3136000BF0C37BD4680BC704727
:104D300000040E4080B483B000AF78607B68C3F39A
:104D400012037B60054B1A6F04497B6813430B67A2
:104D500000BF0C37BD4680BC704700BF00040E404A
:104D600080B483B000AF134B1B6F124A43F480131F
:104D70001367114B1B69104A23F00403136120BF12
:104D800000BF00237B6004E000BF00BF7B680133ED
:104D90007B607B68B3F5FA7FF6D300BF054B1B6AD7
:104DA00003F00803002BF9D000BF00BF0C37BD464D
:104DB00080BC704700040E4000ED00E080B500AFFD
:104DC0000B4B98470346DA780A4B1A70094B1B784D
:104DD000002B09D1084B9847034683F00103DBB24F
:104DE000002B01D0002300E00123184680BD00BF46
:104DF000B554080059130020D90C080080B500AF45
:104E0000034B1B78002B01D1024B984700BF80BD9C
:104E100059130020110D080080B500AF104B1B780E
:104E20005BB2002B09DA0E4B1B7803F06003402BBA
:104E300003D10C4B984703460FE0094B1B785BB23C
:104E4000002B09DB064B1B7803F06003402B03D1DA
:104E5000054B9847034600E00023184680BD00BF7D
:104E600010180020A11108003110080080B400AF14
:104E7000024B1B781846BD4680BC70475913002072
:104E800090B587B002AFF860B9607A607B68009334
:104E9000BB68FA6800218120034CA04703461846EE
:104EA0001437BD4690BD00BFF133080090B587B000
:104EB00002AFF860B9607A607B680093BB68FA68FB
:104EC00000210220034CA047034618461437BD4674
:104ED00090BD00BFF133080080B483B000AFEFF3A2
:104EE00010833B603B68002B0CBF01230023DBB227
:104EF0007B6072B600BFBFF35F8F00BF044B002220
:104F00001A707B6818460C37BD4680BC704700BFDE
:104F1000AA03002080B483B000AF78607B68002BC8
:104F200014BF01230023DBB218460C37BD4680BCFA
:104F30007047000080B582B000AF78607868084B99
:104F400098470346002B07D0064B01221A70BFF387
:104F50005F8F00BF62B600BF00BF0837BD4680BD8F
:104F6000154F0800AA03002080B586B000AFF86096
:104F7000B9607A60BB680E2B02D0BB680F2B02D1E0
:104F80004FF0FF3316E00D4B984778617B681B02AA
:104F900023F07F4323F0FF03BA68D2B2134343F0F8
:104FA000B4431946F868064B984738617869054B51
:104FB00098473B6918461837BD4680BDD94E080052
:104FC000BD000020354F080080B485B000AFF86008
:104FD000B9607A607B68002B03D0FB68BA685A66B8
:104FE00002E0FB68BA681A6600BF1437BD4680BC91
:104FF000704780B487B000AFF860B9607A60FB6832
:105000007A685A64BB68B3F1605F3CD0BB68B3F1A7
:10501000605F34D8BB68B3F1405F34D0BB68B3F194
:10502000405F2CD8BB68B3F1205F2CD0BB68B3F1D4
:10503000205F24D8BB68B3F1805F17D0BB68B3F1A1
:10504000805F1CD8BB68002B1DD0BB68B3F1006F1C
:1050500015D1FB681B6F7B61FB681A6F7B68D943B6
:105060007B690B401A40FB681A6708E0FB681B6FFE
:105070007B617A687B691A43FB681A6700BFFB682B
:105080007A685A6000E000BF1C37BD4680BC70479C
:1050900080B584B000AFF860B9607A60B968F8682C
:1050A000194B98477B6803F001031A46B968F86802
:1050B000164B98477B6803F00A03002B03D0FB686C
:1050C000BA681A6202E0FB68BA685A627B6803F049
:1050D0000203002B04D0FB68BA68C3F8802008E004
:1050E0007B6803F00803002B03D0FB68BA68C3F8A1
:1050F0008420FB68BA685A61FB68BA681A6000BF0E
:105100001037BD4680BD00BF91510800C94F08004F
:1051100080B584B000AFF860B9607A603B60B96870
:10512000F868124B9847BA69B968F868104B984705
:105130003B68002B03D0FB68BA681A6502E0FB6885
:10514000BA685A657B68002B03D0FB68BA681A639B
:1051500002E0FB68BA685A63FB68BA681A61FB68C8
:10516000BA681A6000BF1037BD4680BD9151080073
:10517000C94F080080B483B000AF786039607B68A5
:105180003A68C3F8A02000BF0C37BD4680BC70470A
:1051900080B483B000AF786039607B683A685A6445
:1051A00000BF0C37BD4680BC704780B483B000AFF1
:1051B00078607B68DB6C18460C37BD4680BC704756
:1051C00080B483B000AF78607B689B6C18460C3766
:1051D000BD4680BC7047000080B584B000AF7860E9
:1051E0007868084B9847F860FB68DA6B7B6803F0D7
:1051F0001F0322FA03F303F0010318461037BD46DC
:1052000080BD00BF7554080080B584B000AF7860E1
:105210007868084B9847F8607B6803F01F03012209
:1052200002FA03F31A46FB681A6300BF1037BD4643
:1052300080BD00BF7554080080B584B000AF7860B1
:105240007868084B9847F8607B6803F01F030122D9
:1052500002FA03F31A46FB685A6300BF1037BD46D3
:1052600080BD00BF7554080090B587B002AF78606C
:1052700039607868434B9847F8603B6803F0F04327
:10528000B3F1605F57D0B3F1605F73D8B3F1405FA3
:1052900051D0B3F1405F6DD8B3F1205F3FD0B3F18F
:1052A000205F67D8B3F1006F03D0B3F1805F1BD0EC
:1052B00060E07B6803F01F03012202FA03F31A4641
:1052C0004FF00061F868304B98477B6803F01F038C
:1052D000012202FA03F319463B6803F001031A4660
:1052E000F8682A4B984747E07B6803F01F030122C8
:1052F00002FA03F31A464FF08051F868224B9847A0
:105300007B6803F01F03012202FA03F319463B688E
:1053100003F001031A46F8681C4B98472CE07B68A1
:1053200003F01F03012202FA03F33A681946F868F2
:10533000174B984720E07B6803F01F03012202FA15
:1053400003F319463B6803F06053B3F1605F0CBF91
:1053500001230023DBB218463B689B0803F00102DF
:105360003B6803F00103009313460246F868094CBA
:10537000A04701E0002300E0012318461437BD4692
:1053800090BD00BF75540800F34F0800C94F0800D6
:10539000915008001151080090B587B002AFF86035
:1053A000B9607A607B6803F0F043B3F1605F39D095
:1053B000B3F1605F4FD8B3F1405F33D0B3F1405FDA
:1053C00049D8B3F1205F27D0B3F1205F43D8B3F1C0
:1053D000006F03D0B3F1805F0FD03CE0BA684FF0AC
:1053E0000061F8681F4B98477B6803F001031A4679
:1053F000B968F8681C4B98472FE0BA684FF08051A5
:10540000F868184B98477B6803F001031A46B9689F
:10541000F868154B984720E07A68B968F868134B2C
:1054200098471AE07B6803F06053B3F1605F0CBFEC
:1054300001230023DBB219467B689B0803F00102BD
:105440007B6803F00103009313460A46B968F868C5
:10545000074CA04701E0002300E001231846143761
:10546000BD4690BDF34F0800C94F08009150080099
:105470001151080080B485B000AF78607B685B098B
:1054800003F5001303F206735B02FB60FB6818462A
:105490001437BD4680BC704780B400AFFEE7000003
:1054A00080B400AF024B1846BD4680BC704700BFB9
:1054B0005C02002080B400AF024B1B681846BD465A
:1054C00080BC70476413002080B400AF064B1B689B
:1054D0001B68054A12681268528892B21344184633
:1054E000BD4680BC704700BF6013002080B584B00B
:1054F00000AF78600B46FB70124B9847F8607B68F2
:105500001B781A467B6813447B6010E07B685B78ED
:10551000042B11D07B685B78FA789A4201D17B68C2
:105520000CE07B681B781A467B6813447B60FA6842
:105530007B689A42EAD800E000BF00231846103783
:10554000BD4680BDC954080080B584B000AF034695
:105550000A46FB711346BB711E4B1B78002B01D111
:10556000002332E01C4B1B681B681B79FA799A42B6
:1055700001D3002329E0184B1B681B68174A1360EE
:10558000174B9847F8601AE0144B1B685B78042BA4
:105590000DD1124B1B689B78FA799A4207D10F4BB9
:1055A0001B68DB78BA799A4201D101230DE00B4BDD
:1055B0001B680A4A126812781344084A1360074BA2
:1055C0001B68FA689A42DFD8002318461037BD4698
:1055D00080BD00BF5C130020601300206413002016
:1055E000C954080080B584B000AF0346FB71FB7955
:1055F000002118461E4B9847034683F00103DBB297
:10560000002B01D000232FE01A4B1B685A68FB794E
:105610009B0013441B68BB60BB68DB68984703466C
:105620001A46FB7911461846114B9847034683F0FA
:105630000103DBB2002B01D0002315E00E4B1B68E9
:10564000FB600521F8680D4B9847F860FB68002B5C
:1056500005D0FB689B781846094B9847F1E700BFD7
:10566000BB685B689847012318461037BD4680BD6C
:10567000495508006013002064130020ED54080011
:10568000C530080080B584B000AF03460A46FB7100
:105690001346BB71BA79FB79114618461A4B9847E5
:1056A000034683F00103DBB2002B01D0002327E087
:1056B000164B1B68FB600521F868154B9847F8608E
:1056C000FB68002B11D0FB689878FB68D978FB68E1
:1056D0009B889BB21A460F4B9847034683F0010301
:1056E000DBB2002BE7D000230AE000BF0A4B1B68A7
:1056F0005A68FB799B0013441B681B689847034654
:1057000018461037BD4680BD495508006413002077
:10571000ED5408000D2D08006013002080B500AF87
:10572000014B984700BF80BDA92A080080B582B010
:1057300000AF0F4B1B78002B10D00023FB7106E04D
:10574000FB7918460B4B9847FB790133FB710A4BE9
:105750001B681B681B79FA799A42F1D3044B00222B
:105760001A70064B00221A8000BF0837BD4680BD64
:105770005C130020E5550800601300205A13002038
:1057800080B582B000AF144B1B78002B1FD00023D4
:10579000FB7115E0114B1B685A68FB799B001344A1
:1057A0001B681B69002B08D00C4B1B685A68FB79DF
:1057B0009B0013441B681B699847FB790133FB71FD
:1057C000064B1B681B681B79FA799A42E2D300BF2B
:1057D0000837BD4680BD00BF5C1300206013002069
:1057E00080B500AF064BDB88022B01D0002304E01C
:1057F00002210448044B98470123184680BD00BF8E
:10580000101800205A130020E52C080080B500AFC6
:105810000B4BDB88022B01D000230EE0084B9B884A
:10582000DBB21846074B984703469AB2064B1A80DC
:1058300002210548054B98470123184680BD00BF4B
:10584000101800204531080068130020E52C0800DE
:1058500080B400AF0B4BDB88002B01D000230DE0A0
:10586000084B5B88012B08D1074B1B8823F00203F0
:105870009AB2054B1A80012300E000231846BD466A
:1058800080BC7047101800205A13002080B500AF6C
:105890000A4BDB88002B01D000230CE0074B5B8810
:1058A000002B07D1054B9B88DBB21846044B984769
:1058B000034600E00023184680BD00BF10180020FA
:1058C000C132080080B500AF264BDB88002B01D029
:1058D000002345E0234B5B88012B02D0022B02D032
:1058E0003DE000233CE0204B9847034683F0010352
:1058F000DBB2002B30D11B4B9B88DBB2002B2DD1B0
:105900001A4B9847174B9B881B0A9BB2DBB2013B93
:10591000032B1FD801A252F823F000BF2D59080015
:1059200037590800415908004B5908000D4B104ADF
:105930001A61012314E00B4B0E4A1A6101230FE098
:10594000084B0D4A1A6101230AE0064B0B4A1A6103
:10595000012305E000BF02E000BF00E000BF00231C
:10596000184680BD10180020412C08002D57080053
:1059700081350800B5350800E93508000D36080006
:1059800080B500AF0D4BDB88002B01D0002312E067
:105990000A4B5B88002B0DD1084B9B88DBB2184665
:1059A000074B9847054B9B88DBB21846054B984739
:1059B000034600E00023184680BD00BF10180020F9
:1059C000F9340800AD31080080B500AF054B5B88A5
:1059D000DBB203F07F03DBB21846034B984700BFEE
:1059E00080BD00BF10180020652C080080B400AFF7
:1059F000064BDB88002B01D0002303E0034B044A55
:105A00001A6101231846BD4680BC7047101800205B
:105A1000C959080080B584B000AF0023FB71294B41
:105A20005B88DBB2032B20D801A252F823F000BF21
:105A3000415A08004B5A0800555A08005F5A08009E
:105A400004212148214B984711E01523FB71204B7D
:105A5000BB600CE01323FB711E4BBB6007E02023EF
:105A6000FB711D4B9847B86001E0002326E0FB79ED
:105A7000002B22D00023FB730DE0FB7BBA6813449C
:105A80001A78FB7B91B2154A5B0013440A465A8090
:105A9000FB7B0133FB73FA7BFB799A42EDD3FB79F5
:105AA0000133DBB25B00DAB20C4B1A700B4B1B7884
:105AB0009BB219460948054B9847012318461037F1
:105AC000BD4680BD1018002098020020E52C08007B
:105AD0009C020020B4020020A1540800C80200204B
